{
  "contractName": "Marketplace",
  "abi": [
    {
      "inputs": [
        {
          "internalType": "address",
          "name": "_nftContract",
          "type": "address"
        }
      ],
      "stateMutability": "nonpayable",
      "type": "constructor"
    },
    {
      "inputs": [],
      "name": "_tokenIds",
      "outputs": [
        {
          "internalType": "uint256",
          "name": "_value",
          "type": "uint256"
        }
      ],
      "stateMutability": "view",
      "type": "function",
      "constant": true
    },
    {
      "inputs": [
        {
          "internalType": "uint256",
          "name": "",
          "type": "uint256"
        }
      ],
      "name": "marketItem",
      "outputs": [
        {
          "internalType": "uint256",
          "name": "tokenId",
          "type": "uint256"
        },
        {
          "internalType": "uint256",
          "name": "nftId",
          "type": "uint256"
        },
        {
          "internalType": "uint256",
          "name": "amount",
          "type": "uint256"
        },
        {
          "internalType": "uint256",
          "name": "price",
          "type": "uint256"
        },
        {
          "internalType": "uint256",
          "name": "commision",
          "type": "uint256"
        },
        {
          "internalType": "address payable",
          "name": "seller",
          "type": "address"
        },
        {
          "internalType": "address payable",
          "name": "owner",
          "type": "address"
        },
        {
          "internalType": "bool",
          "name": "isStopped",
          "type": "bool"
        }
      ],
      "stateMutability": "view",
      "type": "function",
      "constant": true
    },
    {
      "inputs": [
        {
          "internalType": "uint256",
          "name": "",
          "type": "uint256"
        }
      ],
      "name": "nftOrigin",
      "outputs": [
        {
          "internalType": "address",
          "name": "",
          "type": "address"
        }
      ],
      "stateMutability": "view",
      "type": "function",
      "constant": true
    },
    {
      "inputs": [
        {
          "internalType": "address",
          "name": "",
          "type": "address"
        },
        {
          "internalType": "address",
          "name": "",
          "type": "address"
        },
        {
          "internalType": "uint256[]",
          "name": "",
          "type": "uint256[]"
        },
        {
          "internalType": "uint256[]",
          "name": "",
          "type": "uint256[]"
        },
        {
          "internalType": "bytes",
          "name": "",
          "type": "bytes"
        }
      ],
      "name": "onERC1155BatchReceived",
      "outputs": [
        {
          "internalType": "bytes4",
          "name": "",
          "type": "bytes4"
        }
      ],
      "stateMutability": "nonpayable",
      "type": "function"
    },
    {
      "inputs": [
        {
          "internalType": "address",
          "name": "",
          "type": "address"
        },
        {
          "internalType": "address",
          "name": "",
          "type": "address"
        },
        {
          "internalType": "uint256",
          "name": "",
          "type": "uint256"
        },
        {
          "internalType": "uint256",
          "name": "",
          "type": "uint256"
        },
        {
          "internalType": "bytes",
          "name": "",
          "type": "bytes"
        }
      ],
      "name": "onERC1155Received",
      "outputs": [
        {
          "internalType": "bytes4",
          "name": "",
          "type": "bytes4"
        }
      ],
      "stateMutability": "nonpayable",
      "type": "function"
    },
    {
      "inputs": [
        {
          "internalType": "bytes4",
          "name": "interfaceId",
          "type": "bytes4"
        }
      ],
      "name": "supportsInterface",
      "outputs": [
        {
          "internalType": "bool",
          "name": "",
          "type": "bool"
        }
      ],
      "stateMutability": "view",
      "type": "function",
      "constant": true
    },
    {
      "inputs": [
        {
          "internalType": "uint256",
          "name": "nftId",
          "type": "uint256"
        },
        {
          "internalType": "uint256",
          "name": "amount",
          "type": "uint256"
        },
        {
          "internalType": "uint256",
          "name": "price",
          "type": "uint256"
        },
        {
          "internalType": "uint256",
          "name": "commision",
          "type": "uint256"
        }
      ],
      "name": "listNft",
      "outputs": [],
      "stateMutability": "nonpayable",
      "type": "function"
    },
    {
      "inputs": [
        {
          "internalType": "uint256",
          "name": "tokenId",
          "type": "uint256"
        }
      ],
      "name": "buyNFT",
      "outputs": [],
      "stateMutability": "payable",
      "type": "function",
      "payable": true
    },
    {
      "inputs": [
        {
          "internalType": "uint256",
          "name": "tokenId",
          "type": "uint256"
        }
      ],
      "name": "stopSale",
      "outputs": [],
      "stateMutability": "nonpayable",
      "type": "function"
    }
  ],
  "bytecode": "0x608060405260196004553480156200001657600080fd5b5060405162001c5238038062001c5283398181016040528101906200003c91906200009b565b80600260006101000a81548173ffffffffffffffffffffffffffffffffffffffff021916908373ffffffffffffffffffffffffffffffffffffffff1602179055505062000120565b600081519050620000958162000106565b92915050565b600060208284031215620000b457620000b362000101565b5b6000620000c48482850162000084565b91505092915050565b6000620000da82620000e1565b9050919050565b600073ffffffffffffffffffffffffffffffffffffffff82169050919050565b600080fd5b6200011181620000cd565b81146200011d57600080fd5b50565b611b2280620001306000396000f3fe6080604052600436106100865760003560e01c806351ed82881161005957806351ed828814610172578063aa46a4001461018e578063bc197c81146101b9578063f23a6e61146101f6578063f8dd1f761461023357610086565b806301ffc9a71461008b578063031ee48a146100c857806309beddb4146100f157806322d4efd81461012e575b600080fd5b34801561009757600080fd5b506100b260048036038101906100ad919061102c565b61025c565b6040516100bf9190611393565b60405180910390f35b3480156100d457600080fd5b506100ef60048036038101906100ea9190611086565b6102d6565b005b3480156100fd57600080fd5b5061011860048036038101906101139190611059565b61066c565b60405161012591906112c8565b60405180910390f35b34801561013a57600080fd5b5061015560048036038101906101509190611059565b61069f565b604051610169989796959493929190611524565b60405180910390f35b61018c60048036038101906101879190611059565b610734565b005b34801561019a57600080fd5b506101a3610b9c565b6040516101b09190611509565b60405180910390f35b3480156101c557600080fd5b506101e060048036038101906101db9190610ec6565b610ba8565b6040516101ed91906113ae565b60405180910390f35b34801561020257600080fd5b5061021d60048036038101906102189190610f95565b610bbd565b60405161022a91906113ae565b60405180910390f35b34801561023f57600080fd5b5061025a60048036038101906102559190611059565b610bd2565b005b60007f4e2312e0000000000000000000000000000000000000000000000000000000007bffffffffffffffffffffffffffffffffffffffffffffffffffffffff1916827bffffffffffffffffffffffffffffffffffffffffffffffffffffffff191614806102cf57506102ce82610ceb565b5b9050919050565b60008411610319576040517f08c379a000000000000000000000000000000000000000000000000000000000815260040161031090611409565b60405180910390fd5b600081101561035d576040517f08c379a0000000000000000000000000000000000000000000000000000000008152600401610354906114a9565b60405180910390fd5b601d81106103a0576040517f08c379a0000000000000000000000000000000000000000000000000000000008152600401610397906113c9565b60405180910390fd5b6103aa6000610d55565b60006103b66000610d6b565b90506040518061010001604052808281526020018681526020018581526020018481526020018381526020013373ffffffffffffffffffffffffffffffffffffffff1681526020013373ffffffffffffffffffffffffffffffffffffffff1681526020016000151581525060056000838152602001908152602001600020600082015181600001556020820151816001015560408201518160020155606082015181600301556080820151816004015560a08201518160050160006101000a81548173ffffffffffffffffffffffffffffffffffffffff021916908373ffffffffffffffffffffffffffffffffffffffff16021790555060c08201518160060160006101000a81548173ffffffffffffffffffffffffffffffffffffffff021916908373ffffffffffffffffffffffffffffffffffffffff16021790555060e08201518160060160146101000a81548160ff021916908315150217905550905050600260009054906101000a900473ffffffffffffffffffffffffffffffffffffffff1673ffffffffffffffffffffffffffffffffffffffff1663f242432a333088886040518563ffffffff1660e01b8152600401610578949392919061133b565b600060405180830381600087803b15801561059257600080fd5b505af11580156105a6573d6000803e3d6000fd5b50505050600073ffffffffffffffffffffffffffffffffffffffff166006600087815260200190815260200160002060009054906101000a900473ffffffffffffffffffffffffffffffffffffffff1673ffffffffffffffffffffffffffffffffffffffff16141561066557336006600087815260200190815260200160002060006101000a81548173ffffffffffffffffffffffffffffffffffffffff021916908373ffffffffffffffffffffffffffffffffffffffff1602179055505b5050505050565b60066020528060005260406000206000915054906101000a900473ffffffffffffffffffffffffffffffffffffffff1681565b60056020528060005260406000206000915090508060000154908060010154908060020154908060030154908060040154908060050160009054906101000a900473ffffffffffffffffffffffffffffffffffffffff16908060060160009054906101000a900473ffffffffffffffffffffffffffffffffffffffff16908060060160149054906101000a900460ff16905088565b60008111610777576040517f08c379a000000000000000000000000000000000000000000000000000000000815260040161076e906114e9565b60405180910390fd5b600073ffffffffffffffffffffffffffffffffffffffff166005600083815260200190815260200160002060060160009054906101000a900473ffffffffffffffffffffffffffffffffffffffff1673ffffffffffffffffffffffffffffffffffffffff16141561081d576040517f08c379a000000000000000000000000000000000000000000000000000000000815260040161081490611469565b60405180910390fd5b600015156005600083815260200190815260200160002060060160149054906101000a900460ff16151514610887576040517f08c379a000000000000000000000000000000000000000000000000000000000815260040161087e90611429565b60405180910390fd5b60006005600083815260200190815260200160002060020154116108e0576040517f08c379a00000000000000000000000000000000000000000000000000000000081526004016108d7906113e9565b60405180910390fd5b6000600560008381526020019081526020016000206003015490503373ffffffffffffffffffffffffffffffffffffffff166005600084815260200190815260200160002060060160009054906101000a900473ffffffffffffffffffffffffffffffffffffffff1673ffffffffffffffffffffffffffffffffffffffff1614156109a0576040517f08c379a000000000000000000000000000000000000000000000000000000000815260040161099790611489565b60405180910390fd5b600060646005600085815260200190815260200160002060040154836109c69190611677565b6109d09190611646565b90506005600084815260200190815260200160002060060160009054906101000a900473ffffffffffffffffffffffffffffffffffffffff1673ffffffffffffffffffffffffffffffffffffffff166108fc8234610a2e91906116d1565b9081150290604051600060405180830381858888f19350505050158015610a59573d6000803e3d6000fd5b50336005600085815260200190815260200160002060060160006101000a81548173ffffffffffffffffffffffffffffffffffffffff021916908373ffffffffffffffffffffffffffffffffffffffff160217905550610ab96001610d55565b600560008481526020019081526020016000206002016000815480929190610ae0906117ac565b9190505550610b02303385600160405180602001604052806000815250610bbd565b50600260009054906101000a900473ffffffffffffffffffffffffffffffffffffffff1673ffffffffffffffffffffffffffffffffffffffff1663f242432a30338660016040518563ffffffff1660e01b8152600401610b6594939291906112e3565b600060405180830381600087803b158015610b7f57600080fd5b505af1158015610b93573d6000803e3d6000fd5b50505050505050565b60008060000154905081565b600063bc197c8160e01b905095945050505050565b600063f23a6e6160e01b905095945050505050565b3373ffffffffffffffffffffffffffffffffffffffff166005600083815260200190815260200160002060060160009054906101000a900473ffffffffffffffffffffffffffffffffffffffff1673ffffffffffffffffffffffffffffffffffffffff1614610c76576040517f08c379a0000000000000000000000000000000000000000000000000000000008152600401610c6d90611449565b60405180910390fd5b60008111610cb9576040517f08c379a0000000000000000000000000000000000000000000000000000000008152600401610cb0906114c9565b60405180910390fd5b60016005600083815260200190815260200160002060060160146101000a81548160ff02191690831515021790555050565b60007f01ffc9a7000000000000000000000000000000000000000000000000000000007bffffffffffffffffffffffffffffffffffffffffffffffffffffffff1916827bffffffffffffffffffffffffffffffffffffffffffffffffffffffff1916149050919050565b6001816000016000828254019250508190555050565b600081600001549050919050565b6000610d8c610d87846115c7565b6115a2565b90508083825260208201905082856020860282011115610daf57610dae611899565b5b60005b85811015610ddf5781610dc58882610eb1565b845260208401935060208301925050600181019050610db2565b5050509392505050565b6000610dfc610df7846115f3565b6115a2565b905082815260208101848484011115610e1857610e1761189e565b5b610e2384828561179d565b509392505050565b600081359050610e3a81611aa7565b92915050565b600082601f830112610e5557610e54611894565b5b8135610e65848260208601610d79565b91505092915050565b600081359050610e7d81611abe565b92915050565b600082601f830112610e9857610e97611894565b5b8135610ea8848260208601610de9565b91505092915050565b600081359050610ec081611ad5565b92915050565b600080600080600060a08688031215610ee257610ee16118a8565b5b6000610ef088828901610e2b565b9550506020610f0188828901610e2b565b945050604086013567ffffffffffffffff811115610f2257610f216118a3565b5b610f2e88828901610e40565b935050606086013567ffffffffffffffff811115610f4f57610f4e6118a3565b5b610f5b88828901610e40565b925050608086013567ffffffffffffffff811115610f7c57610f7b6118a3565b5b610f8888828901610e83565b9150509295509295909350565b600080600080600060a08688031215610fb157610fb06118a8565b5b6000610fbf88828901610e2b565b9550506020610fd088828901610e2b565b9450506040610fe188828901610eb1565b9350506060610ff288828901610eb1565b925050608086013567ffffffffffffffff811115611013576110126118a3565b5b61101f88828901610e83565b9150509295509295909350565b600060208284031215611042576110416118a8565b5b600061105084828501610e6e565b91505092915050565b60006020828403121561106f5761106e6118a8565b5b600061107d84828501610eb1565b91505092915050565b600080600080608085870312156110a05761109f6118a8565b5b60006110ae87828801610eb1565b94505060206110bf87828801610eb1565b93505060406110d087828801610eb1565b92505060606110e187828801610eb1565b91505092959194509250565b6110f681611717565b82525050565b61110581611705565b82525050565b61111481611729565b82525050565b61112381611735565b82525050565b6111328161178b565b82525050565b6000611145602083611635565b9150611150826118be565b602082019050919050565b6000611168600883611635565b9150611173826118e7565b602082019050919050565b600061118b601383611635565b915061119682611910565b602082019050919050565b60006111ae601683611635565b91506111b982611939565b602082019050919050565b60006111d1602783611635565b91506111dc82611962565b604082019050919050565b60006111f4600b83611635565b91506111ff826119b1565b602082019050919050565b6000611217601583611635565b9150611222826119da565b602082019050919050565b600061123a600083611624565b915061124582611a03565b600082019050919050565b600061125d602383611635565b915061126882611a06565b604082019050919050565b6000611280600f83611635565b915061128b82611a55565b602082019050919050565b60006112a3601083611635565b91506112ae82611a7e565b602082019050919050565b6112c281611781565b82525050565b60006020820190506112dd60008301846110fc565b92915050565b600060a0820190506112f860008301876110fc565b61130560208301866110fc565b61131260408301856112b9565b61131f6060830184611129565b81810360808301526113308161122d565b905095945050505050565b600060a08201905061135060008301876110fc565b61135d60208301866110fc565b61136a60408301856112b9565b61137760608301846112b9565b81810360808301526113888161122d565b905095945050505050565b60006020820190506113a8600083018461110b565b92915050565b60006020820190506113c3600083018461111a565b92915050565b600060208201905081810360008301526113e281611138565b9050919050565b600060208201905081810360008301526114028161115b565b9050919050565b600060208201905081810360008301526114228161117e565b9050919050565b60006020820190508181036000830152611442816111a1565b9050919050565b60006020820190508181036000830152611462816111c4565b9050919050565b60006020820190508181036000830152611482816111e7565b9050919050565b600060208201905081810360008301526114a28161120a565b9050919050565b600060208201905081810360008301526114c281611250565b9050919050565b600060208201905081810360008301526114e281611273565b9050919050565b6000602082019050818103600083015261150281611296565b9050919050565b600060208201905061151e60008301846112b9565b92915050565b60006101008201905061153a600083018b6112b9565b611547602083018a6112b9565b61155460408301896112b9565b61156160608301886112b9565b61156e60808301876112b9565b61157b60a08301866110ed565b61158860c08301856110ed565b61159560e083018461110b565b9998505050505050505050565b60006115ac6115bd565b90506115b882826117d6565b919050565b6000604051905090565b600067ffffffffffffffff8211156115e2576115e1611865565b5b602082029050602081019050919050565b600067ffffffffffffffff82111561160e5761160d611865565b5b611617826118ad565b9050602081019050919050565b600082825260208201905092915050565b600082825260208201905092915050565b600061165182611781565b915061165c83611781565b92508261166c5761166b611836565b5b828204905092915050565b600061168282611781565b915061168d83611781565b9250817fffffffffffffffffffffffffffffffffffffffffffffffffffffffffffffffff04831182151516156116c6576116c5611807565b5b828202905092915050565b60006116dc82611781565b91506116e783611781565b9250828210156116fa576116f9611807565b5b828203905092915050565b600061171082611761565b9050919050565b600061172282611761565b9050919050565b60008115159050919050565b60007fffffffff0000000000000000000000000000000000000000000000000000000082169050919050565b600073ffffffffffffffffffffffffffffffffffffffff82169050919050565b6000819050919050565b600061179682611781565b9050919050565b82818337600083830152505050565b60006117b782611781565b915060008214156117cb576117ca611807565b5b600182039050919050565b6117df826118ad565b810181811067ffffffffffffffff821117156117fe576117fd611865565b5b80604052505050565b7f4e487b7100000000000000000000000000000000000000000000000000000000600052601160045260246000fd5b7f4e487b7100000000000000000000000000000000000000000000000000000000600052601260045260246000fd5b7f4e487b7100000000000000000000000000000000000000000000000000000000600052604160045260246000fd5b600080fd5b600080fd5b600080fd5b600080fd5b600080fd5b6000601f19601f8301169050919050565b7f636f6d6d6973696f6e2073686f756c64206265206c657373207468616e203330600082015250565b7f536f6c64204f7574000000000000000000000000000000000000000000000000600082015250565b7f546f6b656e20646f65736e6f7420657869737400000000000000000000000000600082015250565b7f53616c652048617320416c726561647920456e64656400000000000000000000600082015250565b7f55736572204973204e6f7420746865204f776e6572206f662063757272656e7460008201527f204e465420494400000000000000000000000000000000000000000000000000602082015250565b7f4e6f74204f6e2053616c65000000000000000000000000000000000000000000600082015250565b7f4475646520596f7527726520746865206f776e65720000000000000000000000600082015250565b50565b7f636f6d6d6973696f6e2073686f756c64206265206265747765656e203020746f60008201527f2033300000000000000000000000000000000000000000000000000000000000602082015250565b7f496e76616c696420746f6b656e49440000000000000000000000000000000000600082015250565b7f696e76616c696420546f6b656e20496400000000000000000000000000000000600082015250565b611ab081611705565b8114611abb57600080fd5b50565b611ac781611735565b8114611ad257600080fd5b50565b611ade81611781565b8114611ae957600080fd5b5056fea2646970667358221220672dd769fce8d39dc2c79acf95ebbc2344bac708b858204a51cfbb739b622a9c64736f6c63430008070033",
  "immutableReferences": {},
  "source": "// SPDX-License-Identifier: MIT\n\npragma solidity ^0.8.4;\n\nimport \"@openzeppelin/contracts/token/ERC1155/ERC1155.sol\";\nimport \"@openzeppelin/contracts/utils/Counters.sol\";\nimport \"@openzeppelin/contracts/token/ERC1155/IERC1155.sol\";\nimport \"@openzeppelin/contracts/token/ERC1155/utils/ERC1155Holder.sol\";\n\n/// @title A NFT Marketplace using ERC1155\n/// @author Karan J Goraniya\n/// @notice You can use this contract to list NFT on Marketplace\n/// @dev All function calls are currently implemented without side effects\n\ncontract Marketplace is ERC1155Holder {\n    using Counters for Counters.Counter;\n    Counters.Counter public _tokenIds;\n    Counters.Counter private _nftSold;\n    IERC1155 private nftContract;\n    address private owner;\n    uint256 private platformFee = 25;\n\n    constructor(address _nftContract) {\n        nftContract = IERC1155(_nftContract);\n    }\n\n    struct NFTMarketItem {\n        uint256 tokenId;\n        uint256 nftId;\n        uint256 amount;\n        uint256 price;\n        uint256 commision;\n        address payable seller;\n        address payable owner;\n        bool isStopped;\n    }\n\n    mapping(uint256 => NFTMarketItem) public marketItem;\n    mapping(uint256 => address) public nftOrigin;\n\n    /// @notice It will list the NFT to marketplace.\n    /// @dev It will list NFT minted from MFTMint contract.\n\n    function listNft(\n        uint256 nftId,\n        uint256 amount,\n        uint256 price,\n        uint256 commision\n    ) external {\n        require(nftId > 0, \"Token doesnot exist\");\n        require(commision >= 0, \"commision should be between 0 to 30\");\n        require(commision < 29, \"commision should be less than 30\");\n\n        _tokenIds.increment();\n        uint256 tokenId = _tokenIds.current();\n\n        marketItem[tokenId] = NFTMarketItem(\n            tokenId,\n            nftId,\n            amount,\n            price,\n            commision,\n            payable(msg.sender),\n            payable(msg.sender),\n            false\n        );\n\n        IERC1155(nftContract).safeTransferFrom(\n            msg.sender,\n            address(this),\n            nftId,\n            amount,\n            \"\"\n        );\n        if (nftOrigin[nftId] == address(0)) {\n            nftOrigin[nftId] = msg.sender;\n        }\n    }\n\n    /// @notice It will buy the NFT from marketplace.\n    /// @dev User will able to buy NFT and transfer to respectively owner or user and platform fees, roylty fees also deducted          from this function.\n    // function getOrignalOwner (uint256 tokenId) external view returns(address){\n    //         address ownerO = nftContract.getNftOwner(tokenId);\n    //     return ownerO;\n    // }\n    function buyNFT(uint256 tokenId) external payable {\n        require(tokenId > 0, \"invalid Token Id\");\n        require(marketItem[tokenId].owner != address(0), \"Not On Sale\");\n        require(\n            marketItem[tokenId].isStopped == false,\n            \"Sale Has Already Ended\"\n        );\n        require(marketItem[tokenId].amount > 0, \"Sold Out\");\n        uint256 price = marketItem[tokenId].price;\n\n        require(\n            marketItem[tokenId].owner != msg.sender,\n            \"Dude You're the owner\"\n        );\n        uint256 commision = (price * marketItem[tokenId].commision) / 100;\n\n        marketItem[tokenId].owner.transfer(msg.value - commision);\n        marketItem[tokenId].owner = payable(msg.sender);\n        _nftSold.increment();\n        marketItem[tokenId].amount--;\n        onERC1155Received(address(this), msg.sender, tokenId, 1, \"\");\n        nftContract.safeTransferFrom(address(this), msg.sender, tokenId, 1, \"\");\n    }\n\n    function stopSale(uint256 tokenId) external {\n        require(\n            marketItem[tokenId].owner == msg.sender,\n            \"User Is Not the Owner of current NFT ID\"\n        );\n        require(tokenId > 0, \"Invalid tokenID\");\n\n        marketItem[tokenId].isStopped = true;\n    }\n}\n",
  "sourcePath": "/home/dev-lap-2/Desktop/WORK/Contracts/Ayewa/contracts/DaSales.sol",
  "compiler": {
    "name": "solc",
    "version": "0.8.7+commit.e28d00a7.Emscripten.clang"
  },
  "schemaVersion": "3.4.7",
  "updatedAt": "2022-07-18T05:45:14.202Z",
  "networkType": "ethereum",
  "devdoc": {
    "author": "Karan J Goraniya",
    "details": "All function calls are currently implemented without side effects",
    "kind": "dev",
    "methods": {
      "buyNFT(uint256)": {
        "details": "User will able to buy NFT and transfer to respectively owner or user and platform fees, roylty fees also deducted          from this function."
      },
      "listNft(uint256,uint256,uint256,uint256)": {
        "details": "It will list NFT minted from MFTMint contract."
      },
      "supportsInterface(bytes4)": {
        "details": "See {IERC165-supportsInterface}."
      }
    },
    "title": "A NFT Marketplace using ERC1155",
    "version": 1
  },
  "userdoc": {
    "kind": "user",
    "methods": {
      "buyNFT(uint256)": {
        "notice": "It will buy the NFT from marketplace."
      },
      "listNft(uint256,uint256,uint256,uint256)": {
        "notice": "It will list the NFT to marketplace."
      }
    },
    "notice": "You can use this contract to list NFT on Marketplace",
    "version": 1
  }
}