{
  "contractName": "Marketplace",
  "abi": [
    {
      "inputs": [
        {
          "internalType": "address",
          "name": "_nftContract",
          "type": "address"
        }
      ],
      "stateMutability": "nonpayable",
      "type": "constructor"
    },
    {
      "inputs": [],
      "name": "_tokenIds",
      "outputs": [
        {
          "internalType": "uint256",
          "name": "_value",
          "type": "uint256"
        }
      ],
      "stateMutability": "view",
      "type": "function",
      "constant": true
    },
    {
      "inputs": [
        {
          "internalType": "uint256",
          "name": "",
          "type": "uint256"
        }
      ],
      "name": "marketItem",
      "outputs": [
        {
          "internalType": "uint256",
          "name": "tokenId",
          "type": "uint256"
        },
        {
          "internalType": "uint256",
          "name": "nftId",
          "type": "uint256"
        },
        {
          "internalType": "uint256",
          "name": "amount",
          "type": "uint256"
        },
        {
          "internalType": "uint256",
          "name": "price",
          "type": "uint256"
        },
        {
          "internalType": "uint256",
          "name": "commision",
          "type": "uint256"
        },
        {
          "internalType": "address payable",
          "name": "seller",
          "type": "address"
        },
        {
          "internalType": "address payable",
          "name": "owner",
          "type": "address"
        },
        {
          "internalType": "bool",
          "name": "isStopped",
          "type": "bool"
        }
      ],
      "stateMutability": "view",
      "type": "function",
      "constant": true
    },
    {
      "inputs": [
        {
          "internalType": "uint256",
          "name": "",
          "type": "uint256"
        }
      ],
      "name": "nftOrigin",
      "outputs": [
        {
          "internalType": "address",
          "name": "",
          "type": "address"
        }
      ],
      "stateMutability": "view",
      "type": "function",
      "constant": true
    },
    {
      "inputs": [
        {
          "internalType": "address",
          "name": "",
          "type": "address"
        },
        {
          "internalType": "address",
          "name": "",
          "type": "address"
        },
        {
          "internalType": "uint256[]",
          "name": "",
          "type": "uint256[]"
        },
        {
          "internalType": "uint256[]",
          "name": "",
          "type": "uint256[]"
        },
        {
          "internalType": "bytes",
          "name": "",
          "type": "bytes"
        }
      ],
      "name": "onERC1155BatchReceived",
      "outputs": [
        {
          "internalType": "bytes4",
          "name": "",
          "type": "bytes4"
        }
      ],
      "stateMutability": "nonpayable",
      "type": "function"
    },
    {
      "inputs": [
        {
          "internalType": "address",
          "name": "",
          "type": "address"
        },
        {
          "internalType": "address",
          "name": "",
          "type": "address"
        },
        {
          "internalType": "uint256",
          "name": "",
          "type": "uint256"
        },
        {
          "internalType": "uint256",
          "name": "",
          "type": "uint256"
        },
        {
          "internalType": "bytes",
          "name": "",
          "type": "bytes"
        }
      ],
      "name": "onERC1155Received",
      "outputs": [
        {
          "internalType": "bytes4",
          "name": "",
          "type": "bytes4"
        }
      ],
      "stateMutability": "nonpayable",
      "type": "function"
    },
    {
      "inputs": [
        {
          "internalType": "bytes4",
          "name": "interfaceId",
          "type": "bytes4"
        }
      ],
      "name": "supportsInterface",
      "outputs": [
        {
          "internalType": "bool",
          "name": "",
          "type": "bool"
        }
      ],
      "stateMutability": "view",
      "type": "function",
      "constant": true
    },
    {
      "inputs": [
        {
          "internalType": "uint256",
          "name": "nftId",
          "type": "uint256"
        },
        {
          "internalType": "uint256",
          "name": "amount",
          "type": "uint256"
        },
        {
          "internalType": "uint256",
          "name": "price",
          "type": "uint256"
        },
        {
          "internalType": "uint256",
          "name": "commision",
          "type": "uint256"
        }
      ],
      "name": "listNft",
      "outputs": [],
      "stateMutability": "nonpayable",
      "type": "function"
    },
    {
      "inputs": [
        {
          "internalType": "uint256",
          "name": "tokenId",
          "type": "uint256"
        }
      ],
      "name": "buyNFT",
      "outputs": [],
      "stateMutability": "payable",
      "type": "function",
      "payable": true
    },
    {
      "inputs": [
        {
          "internalType": "uint256",
          "name": "tokenId",
          "type": "uint256"
        }
      ],
      "name": "stopSale",
      "outputs": [],
      "stateMutability": "nonpayable",
      "type": "function"
    }
  ],
  "bytecode": "0x608060405260196004553480156200001657600080fd5b5060405162001cba38038062001cba83398181016040528101906200003c91906200009b565b80600260006101000a81548173ffffffffffffffffffffffffffffffffffffffff021916908373ffffffffffffffffffffffffffffffffffffffff1602179055505062000120565b600081519050620000958162000106565b92915050565b600060208284031215620000b457620000b362000101565b5b6000620000c48482850162000084565b91505092915050565b6000620000da82620000e1565b9050919050565b600073ffffffffffffffffffffffffffffffffffffffff82169050919050565b600080fd5b6200011181620000cd565b81146200011d57600080fd5b50565b611b8a80620001306000396000f3fe6080604052600436106100865760003560e01c806351ed82881161005957806351ed828814610172578063aa46a4001461018e578063bc197c81146101b9578063f23a6e61146101f6578063f8dd1f761461023357610086565b806301ffc9a71461008b578063031ee48a146100c857806309beddb4146100f157806322d4efd81461012e575b600080fd5b34801561009757600080fd5b506100b260048036038101906100ad9190611094565b61025c565b6040516100bf91906113fb565b60405180910390f35b3480156100d457600080fd5b506100ef60048036038101906100ea91906110ee565b6102d6565b005b3480156100fd57600080fd5b50610118600480360381019061011391906110c1565b61066c565b6040516101259190611330565b60405180910390f35b34801561013a57600080fd5b50610155600480360381019061015091906110c1565b61069f565b60405161016998979695949392919061158c565b60405180910390f35b61018c600480360381019061018791906110c1565b610734565b005b34801561019a57600080fd5b506101a3610b47565b6040516101b09190611571565b60405180910390f35b3480156101c557600080fd5b506101e060048036038101906101db9190610f2e565b610b53565b6040516101ed9190611416565b60405180910390f35b34801561020257600080fd5b5061021d60048036038101906102189190610ffd565b610b68565b60405161022a9190611416565b60405180910390f35b34801561023f57600080fd5b5061025a600480360381019061025591906110c1565b610b7d565b005b60007f4e2312e0000000000000000000000000000000000000000000000000000000007bffffffffffffffffffffffffffffffffffffffffffffffffffffffff1916827bffffffffffffffffffffffffffffffffffffffffffffffffffffffff191614806102cf57506102ce82610d53565b5b9050919050565b60008411610319576040517f08c379a000000000000000000000000000000000000000000000000000000000815260040161031090611471565b60405180910390fd5b600081101561035d576040517f08c379a000000000000000000000000000000000000000000000000000000000815260040161035490611511565b60405180910390fd5b601d81106103a0576040517f08c379a000000000000000000000000000000000000000000000000000000000815260040161039790611431565b60405180910390fd5b6103aa6000610dbd565b60006103b66000610dd3565b90506040518061010001604052808281526020018681526020018581526020018481526020018381526020013373ffffffffffffffffffffffffffffffffffffffff1681526020013373ffffffffffffffffffffffffffffffffffffffff1681526020016000151581525060056000838152602001908152602001600020600082015181600001556020820151816001015560408201518160020155606082015181600301556080820151816004015560a08201518160050160006101000a81548173ffffffffffffffffffffffffffffffffffffffff021916908373ffffffffffffffffffffffffffffffffffffffff16021790555060c08201518160060160006101000a81548173ffffffffffffffffffffffffffffffffffffffff021916908373ffffffffffffffffffffffffffffffffffffffff16021790555060e08201518160060160146101000a81548160ff021916908315150217905550905050600260009054906101000a900473ffffffffffffffffffffffffffffffffffffffff1673ffffffffffffffffffffffffffffffffffffffff1663f242432a333088886040518563ffffffff1660e01b815260040161057894939291906113a3565b600060405180830381600087803b15801561059257600080fd5b505af11580156105a6573d6000803e3d6000fd5b50505050600073ffffffffffffffffffffffffffffffffffffffff166006600087815260200190815260200160002060009054906101000a900473ffffffffffffffffffffffffffffffffffffffff1673ffffffffffffffffffffffffffffffffffffffff16141561066557336006600087815260200190815260200160002060006101000a81548173ffffffffffffffffffffffffffffffffffffffff021916908373ffffffffffffffffffffffffffffffffffffffff1602179055505b5050505050565b60066020528060005260406000206000915054906101000a900473ffffffffffffffffffffffffffffffffffffffff1681565b60056020528060005260406000206000915090508060000154908060010154908060020154908060030154908060040154908060050160009054906101000a900473ffffffffffffffffffffffffffffffffffffffff16908060060160009054906101000a900473ffffffffffffffffffffffffffffffffffffffff16908060060160149054906101000a900460ff16905088565b60008111610777576040517f08c379a000000000000000000000000000000000000000000000000000000000815260040161076e90611551565b60405180910390fd5b600073ffffffffffffffffffffffffffffffffffffffff166005600083815260200190815260200160002060060160009054906101000a900473ffffffffffffffffffffffffffffffffffffffff1673ffffffffffffffffffffffffffffffffffffffff16141561081d576040517f08c379a0000000000000000000000000000000000000000000000000000000008152600401610814906114d1565b60405180910390fd5b600015156005600083815260200190815260200160002060060160149054906101000a900460ff16151514610887576040517f08c379a000000000000000000000000000000000000000000000000000000000815260040161087e90611491565b60405180910390fd5b60006005600083815260200190815260200160002060020154116108e0576040517f08c379a00000000000000000000000000000000000000000000000000000000081526004016108d790611451565b60405180910390fd5b6000600560008381526020019081526020016000206003015490503373ffffffffffffffffffffffffffffffffffffffff166005600084815260200190815260200160002060060160009054906101000a900473ffffffffffffffffffffffffffffffffffffffff1673ffffffffffffffffffffffffffffffffffffffff1614156109a0576040517f08c379a0000000000000000000000000000000000000000000000000000000008152600401610997906114f1565b60405180910390fd5b600060646005600085815260200190815260200160002060040154836109c691906116df565b6109d091906116ae565b90506005600084815260200190815260200160002060060160009054906101000a900473ffffffffffffffffffffffffffffffffffffffff1673ffffffffffffffffffffffffffffffffffffffff166108fc8234610a2e9190611739565b9081150290604051600060405180830381858888f19350505050158015610a59573d6000803e3d6000fd5b50610a646001610dbd565b600560008481526020019081526020016000206002016000815480929190610a8b90611814565b9190505550610aad303385600160405180602001604052806000815250610b68565b50600260009054906101000a900473ffffffffffffffffffffffffffffffffffffffff1673ffffffffffffffffffffffffffffffffffffffff1663f242432a30338660016040518563ffffffff1660e01b8152600401610b10949392919061134b565b600060405180830381600087803b158015610b2a57600080fd5b505af1158015610b3e573d6000803e3d6000fd5b50505050505050565b60008060000154905081565b600063bc197c8160e01b905095945050505050565b600063f23a6e6160e01b905095945050505050565b3373ffffffffffffffffffffffffffffffffffffffff166005600083815260200190815260200160002060060160009054906101000a900473ffffffffffffffffffffffffffffffffffffffff1673ffffffffffffffffffffffffffffffffffffffff1614610c21576040517f08c379a0000000000000000000000000000000000000000000000000000000008152600401610c18906114b1565b60405180910390fd5b60008111610c64576040517f08c379a0000000000000000000000000000000000000000000000000000000008152600401610c5b90611531565b60405180910390fd5b600260009054906101000a900473ffffffffffffffffffffffffffffffffffffffff1673ffffffffffffffffffffffffffffffffffffffff1663f242432a30338460056000878152602001908152602001600020600201546040518563ffffffff1660e01b8152600401610cdb94939291906113a3565b600060405180830381600087803b158015610cf557600080fd5b505af1158015610d09573d6000803e3d6000fd5b50505050600560008281526020019081526020016000205060016005600083815260200190815260200160002060060160146101000a81548160ff02191690831515021790555050565b60007f01ffc9a7000000000000000000000000000000000000000000000000000000007bffffffffffffffffffffffffffffffffffffffffffffffffffffffff1916827bffffffffffffffffffffffffffffffffffffffffffffffffffffffff1916149050919050565b6001816000016000828254019250508190555050565b600081600001549050919050565b6000610df4610def8461162f565b61160a565b90508083825260208201905082856020860282011115610e1757610e16611901565b5b60005b85811015610e475781610e2d8882610f19565b845260208401935060208301925050600181019050610e1a565b5050509392505050565b6000610e64610e5f8461165b565b61160a565b905082815260208101848484011115610e8057610e7f611906565b5b610e8b848285611805565b509392505050565b600081359050610ea281611b0f565b92915050565b600082601f830112610ebd57610ebc6118fc565b5b8135610ecd848260208601610de1565b91505092915050565b600081359050610ee581611b26565b92915050565b600082601f830112610f0057610eff6118fc565b5b8135610f10848260208601610e51565b91505092915050565b600081359050610f2881611b3d565b92915050565b600080600080600060a08688031215610f4a57610f49611910565b5b6000610f5888828901610e93565b9550506020610f6988828901610e93565b945050604086013567ffffffffffffffff811115610f8a57610f8961190b565b5b610f9688828901610ea8565b935050606086013567ffffffffffffffff811115610fb757610fb661190b565b5b610fc388828901610ea8565b925050608086013567ffffffffffffffff811115610fe457610fe361190b565b5b610ff088828901610eeb565b9150509295509295909350565b600080600080600060a0868803121561101957611018611910565b5b600061102788828901610e93565b955050602061103888828901610e93565b945050604061104988828901610f19565b935050606061105a88828901610f19565b925050608086013567ffffffffffffffff81111561107b5761107a61190b565b5b61108788828901610eeb565b9150509295509295909350565b6000602082840312156110aa576110a9611910565b5b60006110b884828501610ed6565b91505092915050565b6000602082840312156110d7576110d6611910565b5b60006110e584828501610f19565b91505092915050565b6000806000806080858703121561110857611107611910565b5b600061111687828801610f19565b945050602061112787828801610f19565b935050604061113887828801610f19565b925050606061114987828801610f19565b91505092959194509250565b61115e8161177f565b82525050565b61116d8161176d565b82525050565b61117c81611791565b82525050565b61118b8161179d565b82525050565b61119a816117f3565b82525050565b60006111ad60208361169d565b91506111b882611926565b602082019050919050565b60006111d060088361169d565b91506111db8261194f565b602082019050919050565b60006111f360138361169d565b91506111fe82611978565b602082019050919050565b600061121660168361169d565b9150611221826119a1565b602082019050919050565b600061123960278361169d565b9150611244826119ca565b604082019050919050565b600061125c600b8361169d565b915061126782611a19565b602082019050919050565b600061127f60158361169d565b915061128a82611a42565b602082019050919050565b60006112a260008361168c565b91506112ad82611a6b565b600082019050919050565b60006112c560238361169d565b91506112d082611a6e565b604082019050919050565b60006112e8600f8361169d565b91506112f382611abd565b602082019050919050565b600061130b60108361169d565b915061131682611ae6565b602082019050919050565b61132a816117e9565b82525050565b60006020820190506113456000830184611164565b92915050565b600060a0820190506113606000830187611164565b61136d6020830186611164565b61137a6040830185611321565b6113876060830184611191565b818103608083015261139881611295565b905095945050505050565b600060a0820190506113b86000830187611164565b6113c56020830186611164565b6113d26040830185611321565b6113df6060830184611321565b81810360808301526113f081611295565b905095945050505050565b60006020820190506114106000830184611173565b92915050565b600060208201905061142b6000830184611182565b92915050565b6000602082019050818103600083015261144a816111a0565b9050919050565b6000602082019050818103600083015261146a816111c3565b9050919050565b6000602082019050818103600083015261148a816111e6565b9050919050565b600060208201905081810360008301526114aa81611209565b9050919050565b600060208201905081810360008301526114ca8161122c565b9050919050565b600060208201905081810360008301526114ea8161124f565b9050919050565b6000602082019050818103600083015261150a81611272565b9050919050565b6000602082019050818103600083015261152a816112b8565b9050919050565b6000602082019050818103600083015261154a816112db565b9050919050565b6000602082019050818103600083015261156a816112fe565b9050919050565b60006020820190506115866000830184611321565b92915050565b6000610100820190506115a2600083018b611321565b6115af602083018a611321565b6115bc6040830189611321565b6115c96060830188611321565b6115d66080830187611321565b6115e360a0830186611155565b6115f060c0830185611155565b6115fd60e0830184611173565b9998505050505050505050565b6000611614611625565b9050611620828261183e565b919050565b6000604051905090565b600067ffffffffffffffff82111561164a576116496118cd565b5b602082029050602081019050919050565b600067ffffffffffffffff821115611676576116756118cd565b5b61167f82611915565b9050602081019050919050565b600082825260208201905092915050565b600082825260208201905092915050565b60006116b9826117e9565b91506116c4836117e9565b9250826116d4576116d361189e565b5b828204905092915050565b60006116ea826117e9565b91506116f5836117e9565b9250817fffffffffffffffffffffffffffffffffffffffffffffffffffffffffffffffff048311821515161561172e5761172d61186f565b5b828202905092915050565b6000611744826117e9565b915061174f836117e9565b9250828210156117625761176161186f565b5b828203905092915050565b6000611778826117c9565b9050919050565b600061178a826117c9565b9050919050565b60008115159050919050565b60007fffffffff0000000000000000000000000000000000000000000000000000000082169050919050565b600073ffffffffffffffffffffffffffffffffffffffff82169050919050565b6000819050919050565b60006117fe826117e9565b9050919050565b82818337600083830152505050565b600061181f826117e9565b915060008214156118335761183261186f565b5b600182039050919050565b61184782611915565b810181811067ffffffffffffffff82111715611866576118656118cd565b5b80604052505050565b7f4e487b7100000000000000000000000000000000000000000000000000000000600052601160045260246000fd5b7f4e487b7100000000000000000000000000000000000000000000000000000000600052601260045260246000fd5b7f4e487b7100000000000000000000000000000000000000000000000000000000600052604160045260246000fd5b600080fd5b600080fd5b600080fd5b600080fd5b600080fd5b6000601f19601f8301169050919050565b7f636f6d6d6973696f6e2073686f756c64206265206c657373207468616e203330600082015250565b7f536f6c64204f7574000000000000000000000000000000000000000000000000600082015250565b7f546f6b656e20646f65736e6f7420657869737400000000000000000000000000600082015250565b7f53616c652048617320416c726561647920456e64656400000000000000000000600082015250565b7f55736572204973204e6f7420746865204f776e6572206f662063757272656e7460008201527f204e465420494400000000000000000000000000000000000000000000000000602082015250565b7f4e6f74204f6e2053616c65000000000000000000000000000000000000000000600082015250565b7f4475646520596f7527726520746865206f776e65720000000000000000000000600082015250565b50565b7f636f6d6d6973696f6e2073686f756c64206265206265747765656e203020746f60008201527f2033300000000000000000000000000000000000000000000000000000000000602082015250565b7f496e76616c696420746f6b656e49440000000000000000000000000000000000600082015250565b7f696e76616c696420546f6b656e20496400000000000000000000000000000000600082015250565b611b188161176d565b8114611b2357600080fd5b50565b611b2f8161179d565b8114611b3a57600080fd5b50565b611b46816117e9565b8114611b5157600080fd5b5056fea2646970667358221220381a135bd67432911f53a9beeb3fd7ee59031c26ef9753a9fa2bd8c5779de93864736f6c63430008070033",
  "immutableReferences": {},
  "source": "// SPDX-License-Identifier: MIT\n\npragma solidity ^0.8.4;\n\nimport \"@openzeppelin/contracts/token/ERC1155/ERC1155.sol\";\nimport \"@openzeppelin/contracts/utils/Counters.sol\";\nimport \"@openzeppelin/contracts/token/ERC1155/IERC1155.sol\";\nimport \"@openzeppelin/contracts/token/ERC1155/utils/ERC1155Holder.sol\";\n\ncontract Marketplace is ERC1155Holder {\n    using Counters for Counters.Counter;\n    Counters.Counter public _tokenIds;\n    Counters.Counter private _nftSold;\n    IERC1155 private nftContract;\n    address private owner;\n    uint256 private platformFee = 25;\n\n    constructor(address _nftContract) {\n        nftContract = IERC1155(_nftContract);\n    }\n\n    struct NFTMarketItem {\n        uint256 tokenId;\n        uint256 nftId;\n        uint256 amount;\n        uint256 price;\n        uint256 commision;\n        address payable seller;\n        address payable owner;\n        bool isStopped;\n    }\n\n    mapping(uint256 => NFTMarketItem) public marketItem;\n    mapping(uint256 => address) public nftOrigin;\n\n    function listNft(\n        uint256 nftId,\n        uint256 amount,\n        uint256 price,\n        uint256 commision\n    ) external {\n        require(nftId > 0, \"Token doesnot exist\");\n        require(commision >= 0, \"commision should be between 0 to 30\");\n        require(commision < 29, \"commision should be less than 30\");\n\n        _tokenIds.increment();\n        uint256 tokenId = _tokenIds.current();\n\n        marketItem[tokenId] = NFTMarketItem(\n            tokenId,\n            nftId,\n            amount,\n            price,\n            commision,\n            payable(msg.sender),\n            payable(msg.sender),\n            false\n        );\n\n        IERC1155(nftContract).safeTransferFrom(\n            msg.sender,\n            address(this),\n            nftId,\n            amount,\n            \"\"\n        );\n        if (nftOrigin[nftId] == address(0)) {\n            nftOrigin[nftId] = msg.sender;\n        }\n    }\n\n    function buyNFT(uint256 tokenId) external payable {\n        require(tokenId > 0, \"invalid Token Id\");\n        require(marketItem[tokenId].owner != address(0), \"Not On Sale\");\n        require(\n            marketItem[tokenId].isStopped == false,\n            \"Sale Has Already Ended\"\n        );\n        require(marketItem[tokenId].amount > 0, \"Sold Out\");\n        uint256 price = marketItem[tokenId].price;\n\n        require(\n            marketItem[tokenId].owner != msg.sender,\n            \"Dude You're the owner\"\n        );\n        uint256 commision = (price * marketItem[tokenId].commision) / 100;\n\n        marketItem[tokenId].owner.transfer(msg.value - commision);\n        _nftSold.increment();\n        marketItem[tokenId].amount--;\n        onERC1155Received(address(this), msg.sender, tokenId, 1, \"\");\n        nftContract.safeTransferFrom(address(this), msg.sender, tokenId, 1, \"\");\n    }\n\n    function stopSale(uint256 tokenId) external {\n        require(\n            marketItem[tokenId].owner == msg.sender,\n            \"User Is Not the Owner of current NFT ID\"\n        );\n        require(tokenId > 0, \"Invalid tokenID\");\n\n        nftContract.safeTransferFrom(\n            address(this),\n            msg.sender,\n            tokenId,\n            marketItem[tokenId].amount,\n            \"\"\n        );\n        marketItem[tokenId].amount;\n        marketItem[tokenId].isStopped = true;\n    }\n}\n",
  "sourcePath": "/home/dev-lap-2/Desktop/WORK/Contracts/Ayewa/contracts/DaSales.sol",
  "compiler": {
    "name": "solc",
    "version": "0.8.7+commit.e28d00a7.Emscripten.clang"
  },
  "schemaVersion": "3.4.7",
  "updatedAt": "2022-07-19T06:28:04.928Z",
  "networkType": "ethereum",
  "devdoc": {
    "kind": "dev",
    "methods": {
      "supportsInterface(bytes4)": {
        "details": "See {IERC165-supportsInterface}."
      }
    },
    "version": 1
  },
  "userdoc": {
    "kind": "user",
    "methods": {},
    "version": 1
  }
}