{
  "contractName": "DaGames",
  "abi": [
    {
      "inputs": [],
      "stateMutability": "nonpayable",
      "type": "constructor"
    },
    {
      "anonymous": false,
      "inputs": [
        {
          "indexed": true,
          "internalType": "address",
          "name": "account",
          "type": "address"
        },
        {
          "indexed": true,
          "internalType": "address",
          "name": "operator",
          "type": "address"
        },
        {
          "indexed": false,
          "internalType": "bool",
          "name": "approved",
          "type": "bool"
        }
      ],
      "name": "ApprovalForAll",
      "type": "event"
    },
    {
      "anonymous": false,
      "inputs": [
        {
          "indexed": true,
          "internalType": "address",
          "name": "previousOwner",
          "type": "address"
        },
        {
          "indexed": true,
          "internalType": "address",
          "name": "newOwner",
          "type": "address"
        }
      ],
      "name": "OwnershipTransferred",
      "type": "event"
    },
    {
      "anonymous": false,
      "inputs": [
        {
          "indexed": true,
          "internalType": "address",
          "name": "operator",
          "type": "address"
        },
        {
          "indexed": true,
          "internalType": "address",
          "name": "from",
          "type": "address"
        },
        {
          "indexed": true,
          "internalType": "address",
          "name": "to",
          "type": "address"
        },
        {
          "indexed": false,
          "internalType": "uint256[]",
          "name": "ids",
          "type": "uint256[]"
        },
        {
          "indexed": false,
          "internalType": "uint256[]",
          "name": "values",
          "type": "uint256[]"
        }
      ],
      "name": "TransferBatch",
      "type": "event"
    },
    {
      "anonymous": false,
      "inputs": [
        {
          "indexed": true,
          "internalType": "address",
          "name": "operator",
          "type": "address"
        },
        {
          "indexed": true,
          "internalType": "address",
          "name": "from",
          "type": "address"
        },
        {
          "indexed": true,
          "internalType": "address",
          "name": "to",
          "type": "address"
        },
        {
          "indexed": false,
          "internalType": "uint256",
          "name": "id",
          "type": "uint256"
        },
        {
          "indexed": false,
          "internalType": "uint256",
          "name": "value",
          "type": "uint256"
        }
      ],
      "name": "TransferSingle",
      "type": "event"
    },
    {
      "anonymous": false,
      "inputs": [
        {
          "indexed": false,
          "internalType": "string",
          "name": "value",
          "type": "string"
        },
        {
          "indexed": true,
          "internalType": "uint256",
          "name": "id",
          "type": "uint256"
        }
      ],
      "name": "URI",
      "type": "event"
    },
    {
      "inputs": [
        {
          "internalType": "address",
          "name": "account",
          "type": "address"
        },
        {
          "internalType": "uint256",
          "name": "id",
          "type": "uint256"
        }
      ],
      "name": "balanceOf",
      "outputs": [
        {
          "internalType": "uint256",
          "name": "",
          "type": "uint256"
        }
      ],
      "stateMutability": "view",
      "type": "function",
      "constant": true
    },
    {
      "inputs": [
        {
          "internalType": "address[]",
          "name": "accounts",
          "type": "address[]"
        },
        {
          "internalType": "uint256[]",
          "name": "ids",
          "type": "uint256[]"
        }
      ],
      "name": "balanceOfBatch",
      "outputs": [
        {
          "internalType": "uint256[]",
          "name": "",
          "type": "uint256[]"
        }
      ],
      "stateMutability": "view",
      "type": "function",
      "constant": true
    },
    {
      "inputs": [
        {
          "internalType": "address",
          "name": "account",
          "type": "address"
        },
        {
          "internalType": "address",
          "name": "operator",
          "type": "address"
        }
      ],
      "name": "isApprovedForAll",
      "outputs": [
        {
          "internalType": "bool",
          "name": "",
          "type": "bool"
        }
      ],
      "stateMutability": "view",
      "type": "function",
      "constant": true
    },
    {
      "inputs": [],
      "name": "owner",
      "outputs": [
        {
          "internalType": "address",
          "name": "",
          "type": "address"
        }
      ],
      "stateMutability": "view",
      "type": "function",
      "constant": true
    },
    {
      "inputs": [],
      "name": "renounceOwnership",
      "outputs": [],
      "stateMutability": "nonpayable",
      "type": "function"
    },
    {
      "inputs": [
        {
          "internalType": "address",
          "name": "from",
          "type": "address"
        },
        {
          "internalType": "address",
          "name": "to",
          "type": "address"
        },
        {
          "internalType": "uint256[]",
          "name": "ids",
          "type": "uint256[]"
        },
        {
          "internalType": "uint256[]",
          "name": "amounts",
          "type": "uint256[]"
        },
        {
          "internalType": "bytes",
          "name": "data",
          "type": "bytes"
        }
      ],
      "name": "safeBatchTransferFrom",
      "outputs": [],
      "stateMutability": "nonpayable",
      "type": "function"
    },
    {
      "inputs": [
        {
          "internalType": "address",
          "name": "from",
          "type": "address"
        },
        {
          "internalType": "address",
          "name": "to",
          "type": "address"
        },
        {
          "internalType": "uint256",
          "name": "id",
          "type": "uint256"
        },
        {
          "internalType": "uint256",
          "name": "amount",
          "type": "uint256"
        },
        {
          "internalType": "bytes",
          "name": "data",
          "type": "bytes"
        }
      ],
      "name": "safeTransferFrom",
      "outputs": [],
      "stateMutability": "nonpayable",
      "type": "function"
    },
    {
      "inputs": [
        {
          "internalType": "address",
          "name": "operator",
          "type": "address"
        },
        {
          "internalType": "bool",
          "name": "approved",
          "type": "bool"
        }
      ],
      "name": "setApprovalForAll",
      "outputs": [],
      "stateMutability": "nonpayable",
      "type": "function"
    },
    {
      "inputs": [
        {
          "internalType": "bytes4",
          "name": "interfaceId",
          "type": "bytes4"
        }
      ],
      "name": "supportsInterface",
      "outputs": [
        {
          "internalType": "bool",
          "name": "",
          "type": "bool"
        }
      ],
      "stateMutability": "view",
      "type": "function",
      "constant": true
    },
    {
      "inputs": [],
      "name": "tokenIndex",
      "outputs": [
        {
          "internalType": "uint256",
          "name": "",
          "type": "uint256"
        }
      ],
      "stateMutability": "view",
      "type": "function",
      "constant": true
    },
    {
      "inputs": [
        {
          "internalType": "address",
          "name": "newOwner",
          "type": "address"
        }
      ],
      "name": "transferOwnership",
      "outputs": [],
      "stateMutability": "nonpayable",
      "type": "function"
    },
    {
      "inputs": [
        {
          "internalType": "uint256",
          "name": "",
          "type": "uint256"
        }
      ],
      "name": "uri",
      "outputs": [
        {
          "internalType": "string",
          "name": "",
          "type": "string"
        }
      ],
      "stateMutability": "view",
      "type": "function",
      "constant": true
    },
    {
      "inputs": [
        {
          "internalType": "string",
          "name": "newuri",
          "type": "string"
        }
      ],
      "name": "setURI",
      "outputs": [],
      "stateMutability": "nonpayable",
      "type": "function"
    },
    {
      "inputs": [
        {
          "internalType": "uint256",
          "name": "quantity",
          "type": "uint256"
        }
      ],
      "name": "mint",
      "outputs": [],
      "stateMutability": "nonpayable",
      "type": "function"
    },
    {
      "inputs": [
        {
          "internalType": "address",
          "name": "to",
          "type": "address"
        },
        {
          "internalType": "uint256[]",
          "name": "ids",
          "type": "uint256[]"
        },
        {
          "internalType": "uint256[]",
          "name": "amounts",
          "type": "uint256[]"
        }
      ],
      "name": "mintBatch",
      "outputs": [],
      "stateMutability": "nonpayable",
      "type": "function"
    },
    {
      "inputs": [],
      "name": "withdraw",
      "outputs": [],
      "stateMutability": "nonpayable",
      "type": "function"
    }
  ],
  "bytecode": "0x608060405260006004553480156200001657600080fd5b506040518060400160405280600781526020017f446147616d6573000000000000000000000000000000000000000000000000008152506200005e816200008560201b60201c565b506200007f62000073620000a160201b60201c565b620000a960201b60201c565b62000284565b80600290805190602001906200009d9291906200016f565b5050565b600033905090565b6000600360009054906101000a900473ffffffffffffffffffffffffffffffffffffffff16905081600360006101000a81548173ffffffffffffffffffffffffffffffffffffffff021916908373ffffffffffffffffffffffffffffffffffffffff1602179055508173ffffffffffffffffffffffffffffffffffffffff168173ffffffffffffffffffffffffffffffffffffffff167f8be0079c531659141344cd1fd0a4f28419497f9722a3daafe3b4186f6b6457e060405160405180910390a35050565b8280546200017d906200021f565b90600052602060002090601f016020900481019282620001a15760008555620001ed565b82601f10620001bc57805160ff1916838001178555620001ed565b82800160010185558215620001ed579182015b82811115620001ec578251825591602001919060010190620001cf565b5b509050620001fc919062000200565b5090565b5b808211156200021b57600081600090555060010162000201565b5090565b600060028204905060018216806200023857607f821691505b602082108114156200024f576200024e62000255565b5b50919050565b7f4e487b7100000000000000000000000000000000000000000000000000000000600052602260045260246000fd5b61353080620002946000396000f3fe608060405234801561001057600080fd5b50600436106100ff5760003560e01c80638da5cb5b11610097578063d81d0a1511610066578063d81d0a1514610284578063e985e9c5146102a0578063f242432a146102d0578063f2fde38b146102ec576100ff565b80638da5cb5b14610210578063a0712d681461022e578063a22cb4651461024a578063d55f927314610266576100ff565b80632eb2c2d6116100d35780632eb2c2d6146101b05780633ccfd60b146101cc5780634e1273f4146101d6578063715018a614610206576100ff565b8062fdd58e1461010457806301ffc9a71461013457806302fe5305146101645780630e89341c14610180575b600080fd5b61011e60048036038101906101199190612346565b610308565b60405161012b9190612b52565b60405180910390f35b61014e600480360381019061014991906123fe565b6103d1565b60405161015b9190612935565b60405180910390f35b61017e60048036038101906101799190612458565b6104b3565b005b61019a600480360381019061019591906124a1565b61053b565b6040516101a79190612950565b60405180910390f35b6101ca60048036038101906101c59190612115565b6105cf565b005b6101d4610670565b005b6101f060048036038101906101eb9190612386565b61077f565b6040516101fd91906128dc565b60405180910390f35b61020e610898565b005b610218610920565b60405161022591906127ff565b60405180910390f35b610248600480360381019061024391906124a1565b61094a565b005b610264600480360381019061025f9190612306565b6109c5565b005b61026e6109db565b60405161027b9190612b52565b60405180910390f35b61029e6004803603810190610299919061227b565b6109e1565b005b6102ba60048036038101906102b591906120d5565b610a7d565b6040516102c79190612935565b60405180910390f35b6102ea60048036038101906102e591906121e4565b610b11565b005b610306600480360381019061030191906120a8565b610bb2565b005b60008073ffffffffffffffffffffffffffffffffffffffff168373ffffffffffffffffffffffffffffffffffffffff161415610379576040517f08c379a0000000000000000000000000000000000000000000000000000000008152600401610370906129b2565b60405180910390fd5b60008083815260200190815260200160002060008473ffffffffffffffffffffffffffffffffffffffff1673ffffffffffffffffffffffffffffffffffffffff16815260200190815260200160002054905092915050565b60007fd9b67a26000000000000000000000000000000000000000000000000000000007bffffffffffffffffffffffffffffffffffffffffffffffffffffffff1916827bffffffffffffffffffffffffffffffffffffffffffffffffffffffff1916148061049c57507f0e89341c000000000000000000000000000000000000000000000000000000007bffffffffffffffffffffffffffffffffffffffffffffffffffffffff1916827bffffffffffffffffffffffffffffffffffffffffffffffffffffffff1916145b806104ac57506104ab82610caa565b5b9050919050565b6104bb610d14565b73ffffffffffffffffffffffffffffffffffffffff166104d9610920565b73ffffffffffffffffffffffffffffffffffffffff161461052f576040517f08c379a000000000000000000000000000000000000000000000000000000000815260040161052690612ab2565b60405180910390fd5b61053881610d1c565b50565b60606002805461054a90612df2565b80601f016020809104026020016040519081016040528092919081815260200182805461057690612df2565b80156105c35780601f10610598576101008083540402835291602001916105c3565b820191906000526020600020905b8154815290600101906020018083116105a657829003601f168201915b50505050509050919050565b6105d7610d14565b73ffffffffffffffffffffffffffffffffffffffff168573ffffffffffffffffffffffffffffffffffffffff16148061061d575061061c85610617610d14565b610a7d565b5b61065c576040517f08c379a000000000000000000000000000000000000000000000000000000000815260040161065390612a52565b60405180910390fd5b6106698585858585610d36565b5050505050565b610678610d14565b73ffffffffffffffffffffffffffffffffffffffff16610696610920565b73ffffffffffffffffffffffffffffffffffffffff16146106ec576040517f08c379a00000000000000000000000000000000000000000000000000000000081526004016106e390612ab2565b60405180910390fd5b6000471161072f576040517f08c379a000000000000000000000000000000000000000000000000000000000815260040161072690612a92565b60405180910390fd5b610737610920565b73ffffffffffffffffffffffffffffffffffffffff166108fc479081150290604051600060405180830381858888f1935050505015801561077c573d6000803e3d6000fd5b50565b606081518351146107c5576040517f08c379a00000000000000000000000000000000000000000000000000000000081526004016107bc90612af2565b60405180910390fd5b6000835167ffffffffffffffff8111156107e2576107e1612f2b565b5b6040519080825280602002602001820160405280156108105781602001602082028036833780820191505090505b50905060005b845181101561088d5761085d85828151811061083557610834612efc565b5b60200260200101518583815181106108505761084f612efc565b5b6020026020010151610308565b8282815181106108705761086f612efc565b5b6020026020010181815250508061088690612e55565b9050610816565b508091505092915050565b6108a0610d14565b73ffffffffffffffffffffffffffffffffffffffff166108be610920565b73ffffffffffffffffffffffffffffffffffffffff1614610914576040517f08c379a000000000000000000000000000000000000000000000000000000000815260040161090b90612ab2565b60405180910390fd5b61091e6000611058565b565b6000600360009054906101000a900473ffffffffffffffffffffffffffffffffffffffff16905090565b6000811161098d576040517f08c379a000000000000000000000000000000000000000000000000000000000815260040161098490612a12565b60405180910390fd5b6109aa33600454836040518060200160405280600081525061111e565b600460008154809291906109bd90612e55565b919050555050565b6109d76109d0610d14565b83836112cf565b5050565b60045481565b6109e9610d14565b73ffffffffffffffffffffffffffffffffffffffff16610a07610920565b73ffffffffffffffffffffffffffffffffffffffff1614610a5d576040517f08c379a0000000000000000000000000000000000000000000000000000000008152600401610a5490612ab2565b60405180910390fd5b610a788383836040518060200160405280600081525061143c565b505050565b6000600160008473ffffffffffffffffffffffffffffffffffffffff1673ffffffffffffffffffffffffffffffffffffffff16815260200190815260200160002060008373ffffffffffffffffffffffffffffffffffffffff1673ffffffffffffffffffffffffffffffffffffffff16815260200190815260200160002060009054906101000a900460ff16905092915050565b610b19610d14565b73ffffffffffffffffffffffffffffffffffffffff168573ffffffffffffffffffffffffffffffffffffffff161480610b5f5750610b5e85610b59610d14565b610a7d565b5b610b9e576040517f08c379a0000000000000000000000000000000000000000000000000000000008152600401610b95906129f2565b60405180910390fd5b610bab8585858585611669565b5050505050565b610bba610d14565b73ffffffffffffffffffffffffffffffffffffffff16610bd8610920565b73ffffffffffffffffffffffffffffffffffffffff1614610c2e576040517f08c379a0000000000000000000000000000000000000000000000000000000008152600401610c2590612ab2565b60405180910390fd5b600073ffffffffffffffffffffffffffffffffffffffff168173ffffffffffffffffffffffffffffffffffffffff161415610c9e576040517f08c379a0000000000000000000000000000000000000000000000000000000008152600401610c95906129d2565b60405180910390fd5b610ca781611058565b50565b60007f01ffc9a7000000000000000000000000000000000000000000000000000000007bffffffffffffffffffffffffffffffffffffffffffffffffffffffff1916827bffffffffffffffffffffffffffffffffffffffffffffffffffffffff1916149050919050565b600033905090565b8060029080519060200190610d32929190611d80565b5050565b8151835114610d7a576040517f08c379a0000000000000000000000000000000000000000000000000000000008152600401610d7190612b12565b60405180910390fd5b600073ffffffffffffffffffffffffffffffffffffffff168473ffffffffffffffffffffffffffffffffffffffff161415610dea576040517f08c379a0000000000000000000000000000000000000000000000000000000008152600401610de190612a32565b60405180910390fd5b6000610df4610d14565b9050610e04818787878787611905565b60005b8451811015610fb5576000858281518110610e2557610e24612efc565b5b602002602001015190506000858381518110610e4457610e43612efc565b5b60200260200101519050600080600084815260200190815260200160002060008b73ffffffffffffffffffffffffffffffffffffffff1673ffffffffffffffffffffffffffffffffffffffff16815260200190815260200160002054905081811015610ee5576040517f08c379a0000000000000000000000000000000000000000000000000000000008152600401610edc90612a72565b60405180910390fd5b81810360008085815260200190815260200160002060008c73ffffffffffffffffffffffffffffffffffffffff1673ffffffffffffffffffffffffffffffffffffffff168152602001908152602001600020819055508160008085815260200190815260200160002060008b73ffffffffffffffffffffffffffffffffffffffff1673ffffffffffffffffffffffffffffffffffffffff1681526020019081526020016000206000828254610f9a9190612ce6565b9250508190555050505080610fae90612e55565b9050610e07565b508473ffffffffffffffffffffffffffffffffffffffff168673ffffffffffffffffffffffffffffffffffffffff168273ffffffffffffffffffffffffffffffffffffffff167f4a39dc06d4c0dbc64b70af90fd698a233a518aa5d07e595d983b8c0526c8f7fb878760405161102c9291906128fe565b60405180910390a461104281878787878761190d565b611050818787878787611915565b505050505050565b6000600360009054906101000a900473ffffffffffffffffffffffffffffffffffffffff16905081600360006101000a81548173ffffffffffffffffffffffffffffffffffffffff021916908373ffffffffffffffffffffffffffffffffffffffff1602179055508173ffffffffffffffffffffffffffffffffffffffff168173ffffffffffffffffffffffffffffffffffffffff167f8be0079c531659141344cd1fd0a4f28419497f9722a3daafe3b4186f6b6457e060405160405180910390a35050565b600073ffffffffffffffffffffffffffffffffffffffff168473ffffffffffffffffffffffffffffffffffffffff16141561118e576040517f08c379a000000000000000000000000000000000000000000000000000000000815260040161118590612b32565b60405180910390fd5b6000611198610d14565b905060006111a585611afc565b905060006111b285611afc565b90506111c383600089858589611905565b8460008088815260200190815260200160002060008973ffffffffffffffffffffffffffffffffffffffff1673ffffffffffffffffffffffffffffffffffffffff16815260200190815260200160002060008282546112229190612ce6565b925050819055508673ffffffffffffffffffffffffffffffffffffffff16600073ffffffffffffffffffffffffffffffffffffffff168473ffffffffffffffffffffffffffffffffffffffff167fc3d58168c5ae7397731d063d5bbf3d657854427343f4c083240f7aacaa2d0f6289896040516112a0929190612b6d565b60405180910390a46112b78360008985858961190d565b6112c683600089898989611b76565b50505050505050565b8173ffffffffffffffffffffffffffffffffffffffff168373ffffffffffffffffffffffffffffffffffffffff16141561133e576040517f08c379a000000000000000000000000000000000000000000000000000000000815260040161133590612ad2565b60405180910390fd5b80600160008573ffffffffffffffffffffffffffffffffffffffff1673ffffffffffffffffffffffffffffffffffffffff16815260200190815260200160002060008473ffffffffffffffffffffffffffffffffffffffff1673ffffffffffffffffffffffffffffffffffffffff16815260200190815260200160002060006101000a81548160ff0219169083151502179055508173ffffffffffffffffffffffffffffffffffffffff168373ffffffffffffffffffffffffffffffffffffffff167f17307eab39ab6107e8899845ad3d59bd9653f200f220920489ca2b5937696c318360405161142f9190612935565b60405180910390a3505050565b600073ffffffffffffffffffffffffffffffffffffffff168473ffffffffffffffffffffffffffffffffffffffff1614156114ac576040517f08c379a00000000000000000000000000000000000000000000000000000000081526004016114a390612b32565b60405180910390fd5b81518351146114f0576040517f08c379a00000000000000000000000000000000000000000000000000000000081526004016114e790612b12565b60405180910390fd5b60006114fa610d14565b905061150b81600087878787611905565b60005b84518110156115c45783818151811061152a57611529612efc565b5b602002602001015160008087848151811061154857611547612efc565b5b6020026020010151815260200190815260200160002060008873ffffffffffffffffffffffffffffffffffffffff1673ffffffffffffffffffffffffffffffffffffffff16815260200190815260200160002060008282546115aa9190612ce6565b9250508190555080806115bc90612e55565b91505061150e565b508473ffffffffffffffffffffffffffffffffffffffff16600073ffffffffffffffffffffffffffffffffffffffff168273ffffffffffffffffffffffffffffffffffffffff167f4a39dc06d4c0dbc64b70af90fd698a233a518aa5d07e595d983b8c0526c8f7fb878760405161163c9291906128fe565b60405180910390a46116538160008787878761190d565b61166281600087878787611915565b5050505050565b600073ffffffffffffffffffffffffffffffffffffffff168473ffffffffffffffffffffffffffffffffffffffff1614156116d9576040517f08c379a00000000000000000000000000000000000000000000000000000000081526004016116d090612a32565b60405180910390fd5b60006116e3610d14565b905060006116f085611afc565b905060006116fd85611afc565b905061170d838989858589611905565b600080600088815260200190815260200160002060008a73ffffffffffffffffffffffffffffffffffffffff1673ffffffffffffffffffffffffffffffffffffffff168152602001908152602001600020549050858110156117a4576040517f08c379a000000000000000000000000000000000000000000000000000000000815260040161179b90612a72565b60405180910390fd5b85810360008089815260200190815260200160002060008b73ffffffffffffffffffffffffffffffffffffffff1673ffffffffffffffffffffffffffffffffffffffff168152602001908152602001600020819055508560008089815260200190815260200160002060008a73ffffffffffffffffffffffffffffffffffffffff1673ffffffffffffffffffffffffffffffffffffffff16815260200190815260200160002060008282546118599190612ce6565b925050819055508773ffffffffffffffffffffffffffffffffffffffff168973ffffffffffffffffffffffffffffffffffffffff168573ffffffffffffffffffffffffffffffffffffffff167fc3d58168c5ae7397731d063d5bbf3d657854427343f4c083240f7aacaa2d0f628a8a6040516118d6929190612b6d565b60405180910390a46118ec848a8a86868a61190d565b6118fa848a8a8a8a8a611b76565b505050505050505050565b505050505050565b505050505050565b6119348473ffffffffffffffffffffffffffffffffffffffff16611d5d565b15611af4578373ffffffffffffffffffffffffffffffffffffffff1663bc197c8187878686866040518663ffffffff1660e01b815260040161197a95949392919061281a565b602060405180830381600087803b15801561199457600080fd5b505af19250505080156119c557506040513d601f19601f820116820180604052508101906119c2919061242b565b60015b611a6b576119d1612f5a565b806308c379a01415611a2e57506119e6613408565b806119f15750611a30565b806040517f08c379a0000000000000000000000000000000000000000000000000000000008152600401611a259190612950565b60405180910390fd5b505b6040517f08c379a0000000000000000000000000000000000000000000000000000000008152600401611a6290612972565b60405180910390fd5b63bc197c8160e01b7bffffffffffffffffffffffffffffffffffffffffffffffffffffffff1916817bffffffffffffffffffffffffffffffffffffffffffffffffffffffff191614611af2576040517f08c379a0000000000000000000000000000000000000000000000000000000008152600401611ae990612992565b60405180910390fd5b505b505050505050565b60606000600167ffffffffffffffff811115611b1b57611b1a612f2b565b5b604051908082528060200260200182016040528015611b495781602001602082028036833780820191505090505b5090508281600081518110611b6157611b60612efc565b5b60200260200101818152505080915050919050565b611b958473ffffffffffffffffffffffffffffffffffffffff16611d5d565b15611d55578373ffffffffffffffffffffffffffffffffffffffff1663f23a6e6187878686866040518663ffffffff1660e01b8152600401611bdb959493929190612882565b602060405180830381600087803b158015611bf557600080fd5b505af1925050508015611c2657506040513d601f19601f82011682018060405250810190611c23919061242b565b60015b611ccc57611c32612f5a565b806308c379a01415611c8f5750611c47613408565b80611c525750611c91565b806040517f08c379a0000000000000000000000000000000000000000000000000000000008152600401611c869190612950565b60405180910390fd5b505b6040517f08c379a0000000000000000000000000000000000000000000000000000000008152600401611cc390612972565b60405180910390fd5b63f23a6e6160e01b7bffffffffffffffffffffffffffffffffffffffffffffffffffffffff1916817bffffffffffffffffffffffffffffffffffffffffffffffffffffffff191614611d53576040517f08c379a0000000000000000000000000000000000000000000000000000000008152600401611d4a90612992565b60405180910390fd5b505b505050505050565b6000808273ffffffffffffffffffffffffffffffffffffffff163b119050919050565b828054611d8c90612df2565b90600052602060002090601f016020900481019282611dae5760008555611df5565b82601f10611dc757805160ff1916838001178555611df5565b82800160010185558215611df5579182015b82811115611df4578251825591602001919060010190611dd9565b5b509050611e029190611e06565b5090565b5b80821115611e1f576000816000905550600101611e07565b5090565b6000611e36611e3184612bbb565b612b96565b90508083825260208201905082856020860282011115611e5957611e58612f81565b5b60005b85811015611e895781611e6f8882611f87565b845260208401935060208301925050600181019050611e5c565b5050509392505050565b6000611ea6611ea184612be7565b612b96565b90508083825260208201905082856020860282011115611ec957611ec8612f81565b5b60005b85811015611ef95781611edf8882612093565b845260208401935060208301925050600181019050611ecc565b5050509392505050565b6000611f16611f1184612c13565b612b96565b905082815260208101848484011115611f3257611f31612f86565b5b611f3d848285612db0565b509392505050565b6000611f58611f5384612c44565b612b96565b905082815260208101848484011115611f7457611f73612f86565b5b611f7f848285612db0565b509392505050565b600081359050611f968161349e565b92915050565b600082601f830112611fb157611fb0612f7c565b5b8135611fc1848260208601611e23565b91505092915050565b600082601f830112611fdf57611fde612f7c565b5b8135611fef848260208601611e93565b91505092915050565b600081359050612007816134b5565b92915050565b60008135905061201c816134cc565b92915050565b600081519050612031816134cc565b92915050565b600082601f83011261204c5761204b612f7c565b5b813561205c848260208601611f03565b91505092915050565b600082601f83011261207a57612079612f7c565b5b813561208a848260208601611f45565b91505092915050565b6000813590506120a2816134e3565b92915050565b6000602082840312156120be576120bd612f90565b5b60006120cc84828501611f87565b91505092915050565b600080604083850312156120ec576120eb612f90565b5b60006120fa85828601611f87565b925050602061210b85828601611f87565b9150509250929050565b600080600080600060a0868803121561213157612130612f90565b5b600061213f88828901611f87565b955050602061215088828901611f87565b945050604086013567ffffffffffffffff81111561217157612170612f8b565b5b61217d88828901611fca565b935050606086013567ffffffffffffffff81111561219e5761219d612f8b565b5b6121aa88828901611fca565b925050608086013567ffffffffffffffff8111156121cb576121ca612f8b565b5b6121d788828901612037565b9150509295509295909350565b600080600080600060a08688031215612200576121ff612f90565b5b600061220e88828901611f87565b955050602061221f88828901611f87565b945050604061223088828901612093565b935050606061224188828901612093565b925050608086013567ffffffffffffffff81111561226257612261612f8b565b5b61226e88828901612037565b9150509295509295909350565b60008060006060848603121561229457612293612f90565b5b60006122a286828701611f87565b935050602084013567ffffffffffffffff8111156122c3576122c2612f8b565b5b6122cf86828701611fca565b925050604084013567ffffffffffffffff8111156122f0576122ef612f8b565b5b6122fc86828701611fca565b9150509250925092565b6000806040838503121561231d5761231c612f90565b5b600061232b85828601611f87565b925050602061233c85828601611ff8565b9150509250929050565b6000806040838503121561235d5761235c612f90565b5b600061236b85828601611f87565b925050602061237c85828601612093565b9150509250929050565b6000806040838503121561239d5761239c612f90565b5b600083013567ffffffffffffffff8111156123bb576123ba612f8b565b5b6123c785828601611f9c565b925050602083013567ffffffffffffffff8111156123e8576123e7612f8b565b5b6123f485828601611fca565b9150509250929050565b60006020828403121561241457612413612f90565b5b60006124228482850161200d565b91505092915050565b60006020828403121561244157612440612f90565b5b600061244f84828501612022565b91505092915050565b60006020828403121561246e5761246d612f90565b5b600082013567ffffffffffffffff81111561248c5761248b612f8b565b5b61249884828501612065565b91505092915050565b6000602082840312156124b7576124b6612f90565b5b60006124c584828501612093565b91505092915050565b60006124da83836127e1565b60208301905092915050565b6124ef81612d3c565b82525050565b600061250082612c85565b61250a8185612cb3565b935061251583612c75565b8060005b8381101561254657815161252d88826124ce565b975061253883612ca6565b925050600181019050612519565b5085935050505092915050565b61255c81612d4e565b82525050565b600061256d82612c90565b6125778185612cc4565b9350612587818560208601612dbf565b61259081612f95565b840191505092915050565b60006125a682612c9b565b6125b08185612cd5565b93506125c0818560208601612dbf565b6125c981612f95565b840191505092915050565b60006125e1603483612cd5565b91506125ec82612fb3565b604082019050919050565b6000612604602883612cd5565b915061260f82613002565b604082019050919050565b6000612627602b83612cd5565b915061263282613051565b604082019050919050565b600061264a602683612cd5565b9150612655826130a0565b604082019050919050565b600061266d602983612cd5565b9150612678826130ef565b604082019050919050565b6000612690602183612cd5565b915061269b8261313e565b604082019050919050565b60006126b3602583612cd5565b91506126be8261318d565b604082019050919050565b60006126d6603283612cd5565b91506126e1826131dc565b604082019050919050565b60006126f9602a83612cd5565b91506127048261322b565b604082019050919050565b600061271c600c83612cd5565b91506127278261327a565b602082019050919050565b600061273f602083612cd5565b915061274a826132a3565b602082019050919050565b6000612762602983612cd5565b915061276d826132cc565b604082019050919050565b6000612785602983612cd5565b91506127908261331b565b604082019050919050565b60006127a8602883612cd5565b91506127b38261336a565b604082019050919050565b60006127cb602183612cd5565b91506127d6826133b9565b604082019050919050565b6127ea81612da6565b82525050565b6127f981612da6565b82525050565b600060208201905061281460008301846124e6565b92915050565b600060a08201905061282f60008301886124e6565b61283c60208301876124e6565b818103604083015261284e81866124f5565b9050818103606083015261286281856124f5565b905081810360808301526128768184612562565b90509695505050505050565b600060a08201905061289760008301886124e6565b6128a460208301876124e6565b6128b160408301866127f0565b6128be60608301856127f0565b81810360808301526128d08184612562565b90509695505050505050565b600060208201905081810360008301526128f681846124f5565b905092915050565b6000604082019050818103600083015261291881856124f5565b9050818103602083015261292c81846124f5565b90509392505050565b600060208201905061294a6000830184612553565b92915050565b6000602082019050818103600083015261296a818461259b565b905092915050565b6000602082019050818103600083015261298b816125d4565b9050919050565b600060208201905081810360008301526129ab816125f7565b9050919050565b600060208201905081810360008301526129cb8161261a565b9050919050565b600060208201905081810360008301526129eb8161263d565b9050919050565b60006020820190508181036000830152612a0b81612660565b9050919050565b60006020820190508181036000830152612a2b81612683565b9050919050565b60006020820190508181036000830152612a4b816126a6565b9050919050565b60006020820190508181036000830152612a6b816126c9565b9050919050565b60006020820190508181036000830152612a8b816126ec565b9050919050565b60006020820190508181036000830152612aab8161270f565b9050919050565b60006020820190508181036000830152612acb81612732565b9050919050565b60006020820190508181036000830152612aeb81612755565b9050919050565b60006020820190508181036000830152612b0b81612778565b9050919050565b60006020820190508181036000830152612b2b8161279b565b9050919050565b60006020820190508181036000830152612b4b816127be565b9050919050565b6000602082019050612b6760008301846127f0565b92915050565b6000604082019050612b8260008301856127f0565b612b8f60208301846127f0565b9392505050565b6000612ba0612bb1565b9050612bac8282612e24565b919050565b6000604051905090565b600067ffffffffffffffff821115612bd657612bd5612f2b565b5b602082029050602081019050919050565b600067ffffffffffffffff821115612c0257612c01612f2b565b5b602082029050602081019050919050565b600067ffffffffffffffff821115612c2e57612c2d612f2b565b5b612c3782612f95565b9050602081019050919050565b600067ffffffffffffffff821115612c5f57612c5e612f2b565b5b612c6882612f95565b9050602081019050919050565b6000819050602082019050919050565b600081519050919050565b600081519050919050565b600081519050919050565b6000602082019050919050565b600082825260208201905092915050565b600082825260208201905092915050565b600082825260208201905092915050565b6000612cf182612da6565b9150612cfc83612da6565b9250827fffffffffffffffffffffffffffffffffffffffffffffffffffffffffffffffff03821115612d3157612d30612e9e565b5b828201905092915050565b6000612d4782612d86565b9050919050565b60008115159050919050565b60007fffffffff0000000000000000000000000000000000000000000000000000000082169050919050565b600073ffffffffffffffffffffffffffffffffffffffff82169050919050565b6000819050919050565b82818337600083830152505050565b60005b83811015612ddd578082015181840152602081019050612dc2565b83811115612dec576000848401525b50505050565b60006002820490506001821680612e0a57607f821691505b60208210811415612e1e57612e1d612ecd565b5b50919050565b612e2d82612f95565b810181811067ffffffffffffffff82111715612e4c57612e4b612f2b565b5b80604052505050565b6000612e6082612da6565b91507fffffffffffffffffffffffffffffffffffffffffffffffffffffffffffffffff821415612e9357612e92612e9e565b5b600182019050919050565b7f4e487b7100000000000000000000000000000000000000000000000000000000600052601160045260246000fd5b7f4e487b7100000000000000000000000000000000000000000000000000000000600052602260045260246000fd5b7f4e487b7100000000000000000000000000000000000000000000000000000000600052603260045260246000fd5b7f4e487b7100000000000000000000000000000000000000000000000000000000600052604160045260246000fd5b600060033d1115612f795760046000803e612f76600051612fa6565b90505b90565b600080fd5b600080fd5b600080fd5b600080fd5b600080fd5b6000601f19601f8301169050919050565b60008160e01c9050919050565b7f455243313135353a207472616e7366657220746f206e6f6e204552433131353560008201527f526563656976657220696d706c656d656e746572000000000000000000000000602082015250565b7f455243313135353a204552433131353552656365697665722072656a6563746560008201527f6420746f6b656e73000000000000000000000000000000000000000000000000602082015250565b7f455243313135353a2062616c616e636520717565727920666f7220746865207a60008201527f65726f2061646472657373000000000000000000000000000000000000000000602082015250565b7f4f776e61626c653a206e6577206f776e657220697320746865207a65726f206160008201527f6464726573730000000000000000000000000000000000000000000000000000602082015250565b7f455243313135353a2063616c6c6572206973206e6f74206f776e6572206e6f7260008201527f20617070726f7665640000000000000000000000000000000000000000000000602082015250565b7f5175616e746974792073686f756c6420626520686967686572207468616e203060008201527f2000000000000000000000000000000000000000000000000000000000000000602082015250565b7f455243313135353a207472616e7366657220746f20746865207a65726f20616460008201527f6472657373000000000000000000000000000000000000000000000000000000602082015250565b7f455243313135353a207472616e736665722063616c6c6572206973206e6f742060008201527f6f776e6572206e6f7220617070726f7665640000000000000000000000000000602082015250565b7f455243313135353a20696e73756666696369656e742062616c616e636520666f60008201527f72207472616e7366657200000000000000000000000000000000000000000000602082015250565b7f42616c616e636520697320300000000000000000000000000000000000000000600082015250565b7f4f776e61626c653a2063616c6c6572206973206e6f7420746865206f776e6572600082015250565b7f455243313135353a2073657474696e6720617070726f76616c2073746174757360008201527f20666f722073656c660000000000000000000000000000000000000000000000602082015250565b7f455243313135353a206163636f756e747320616e6420696473206c656e67746860008201527f206d69736d617463680000000000000000000000000000000000000000000000602082015250565b7f455243313135353a2069647320616e6420616d6f756e7473206c656e6774682060008201527f6d69736d61746368000000000000000000000000000000000000000000000000602082015250565b7f455243313135353a206d696e7420746f20746865207a65726f2061646472657360008201527f7300000000000000000000000000000000000000000000000000000000000000602082015250565b600060443d10156134185761349b565b613420612bb1565b60043d036004823e80513d602482011167ffffffffffffffff8211171561344857505061349b565b808201805167ffffffffffffffff811115613466575050505061349b565b80602083010160043d03850181111561348357505050505061349b565b61349282602001850186612e24565b82955050505050505b90565b6134a781612d3c565b81146134b257600080fd5b50565b6134be81612d4e565b81146134c957600080fd5b50565b6134d581612d5a565b81146134e057600080fd5b50565b6134ec81612da6565b81146134f757600080fd5b5056fea26469706673582212201435087a1cc0ee1272a11de537e93133f115b99296da5f2f2b856cf5ffac6d5464736f6c63430008070033",
  "immutableReferences": {},
  "source": "// SPDX-License-Identifier: MIT\npragma solidity ^0.8.4;\n\nimport \"@openzeppelin/contracts/token/ERC1155/ERC1155.sol\";\nimport \"@openzeppelin/contracts/access/Ownable.sol\";\n\ncontract DaGames is ERC1155, Ownable {\n    uint256 public tokenIndex = 0;\n\n    constructor() ERC1155(\"DaGames\") {}\n\n    function setURI(string memory newuri) public onlyOwner {\n        _setURI(newuri);\n    }\n\n    function mint(uint256 quantity) public {\n        require(quantity > 0, \"Quantity should be higher than 0 \");\n        _mint(msg.sender, tokenIndex, quantity, \"\");\n        tokenIndex++;\n    }\n\n    function mintBatch(\n        address to,\n        uint256[] memory ids,\n        uint256[] memory amounts\n    ) public onlyOwner {\n        _mintBatch(to, ids, amounts, \"\");\n    }\n\n    function withdraw() public onlyOwner {\n        require(address(this).balance > 0, \"Balance is 0\");\n        payable(owner()).transfer(address(this).balance);\n    }\n}\n",
  "sourcePath": "/home/dev-lap-2/Desktop/WORK/Contracts/DaContractNA/contracts/DaGames.sol",
  "compiler": {
    "name": "solc",
    "version": "0.8.7+commit.e28d00a7.Emscripten.clang"
  },
  "schemaVersion": "3.4.7",
  "updatedAt": "2022-06-06T08:08:58.085Z",
  "networkType": "ethereum",
  "devdoc": {
    "kind": "dev",
    "methods": {
      "balanceOf(address,uint256)": {
        "details": "See {IERC1155-balanceOf}. Requirements: - `account` cannot be the zero address."
      },
      "balanceOfBatch(address[],uint256[])": {
        "details": "See {IERC1155-balanceOfBatch}. Requirements: - `accounts` and `ids` must have the same length."
      },
      "isApprovedForAll(address,address)": {
        "details": "See {IERC1155-isApprovedForAll}."
      },
      "owner()": {
        "details": "Returns the address of the current owner."
      },
      "renounceOwnership()": {
        "details": "Leaves the contract without owner. It will not be possible to call `onlyOwner` functions anymore. Can only be called by the current owner. NOTE: Renouncing ownership will leave the contract without an owner, thereby removing any functionality that is only available to the owner."
      },
      "safeBatchTransferFrom(address,address,uint256[],uint256[],bytes)": {
        "details": "See {IERC1155-safeBatchTransferFrom}."
      },
      "safeTransferFrom(address,address,uint256,uint256,bytes)": {
        "details": "See {IERC1155-safeTransferFrom}."
      },
      "setApprovalForAll(address,bool)": {
        "details": "See {IERC1155-setApprovalForAll}."
      },
      "supportsInterface(bytes4)": {
        "details": "See {IERC165-supportsInterface}."
      },
      "transferOwnership(address)": {
        "details": "Transfers ownership of the contract to a new account (`newOwner`). Can only be called by the current owner."
      },
      "uri(uint256)": {
        "details": "See {IERC1155MetadataURI-uri}. This implementation returns the same URI for *all* token types. It relies on the token type ID substitution mechanism https://eips.ethereum.org/EIPS/eip-1155#metadata[defined in the EIP]. Clients calling this function must replace the `\\{id\\}` substring with the actual token type ID."
      }
    },
    "version": 1
  },
  "userdoc": {
    "kind": "user",
    "methods": {},
    "version": 1
  }
}