{
  "contractName": "DaGames",
  "abi": [
    {
      "inputs": [
        {
          "internalType": "address",
          "name": "_tokenAddress",
          "type": "address"
        }
      ],
      "stateMutability": "nonpayable",
      "type": "constructor"
    },
    {
      "anonymous": false,
      "inputs": [
        {
          "indexed": true,
          "internalType": "address",
          "name": "account",
          "type": "address"
        },
        {
          "indexed": true,
          "internalType": "address",
          "name": "operator",
          "type": "address"
        },
        {
          "indexed": false,
          "internalType": "bool",
          "name": "approved",
          "type": "bool"
        }
      ],
      "name": "ApprovalForAll",
      "type": "event"
    },
    {
      "anonymous": false,
      "inputs": [
        {
          "indexed": true,
          "internalType": "address",
          "name": "previousOwner",
          "type": "address"
        },
        {
          "indexed": true,
          "internalType": "address",
          "name": "newOwner",
          "type": "address"
        }
      ],
      "name": "OwnershipTransferred",
      "type": "event"
    },
    {
      "anonymous": false,
      "inputs": [
        {
          "indexed": true,
          "internalType": "address",
          "name": "operator",
          "type": "address"
        },
        {
          "indexed": true,
          "internalType": "address",
          "name": "from",
          "type": "address"
        },
        {
          "indexed": true,
          "internalType": "address",
          "name": "to",
          "type": "address"
        },
        {
          "indexed": false,
          "internalType": "uint256[]",
          "name": "ids",
          "type": "uint256[]"
        },
        {
          "indexed": false,
          "internalType": "uint256[]",
          "name": "values",
          "type": "uint256[]"
        }
      ],
      "name": "TransferBatch",
      "type": "event"
    },
    {
      "anonymous": false,
      "inputs": [
        {
          "indexed": true,
          "internalType": "address",
          "name": "operator",
          "type": "address"
        },
        {
          "indexed": true,
          "internalType": "address",
          "name": "from",
          "type": "address"
        },
        {
          "indexed": true,
          "internalType": "address",
          "name": "to",
          "type": "address"
        },
        {
          "indexed": false,
          "internalType": "uint256",
          "name": "id",
          "type": "uint256"
        },
        {
          "indexed": false,
          "internalType": "uint256",
          "name": "value",
          "type": "uint256"
        }
      ],
      "name": "TransferSingle",
      "type": "event"
    },
    {
      "anonymous": false,
      "inputs": [
        {
          "indexed": false,
          "internalType": "string",
          "name": "value",
          "type": "string"
        },
        {
          "indexed": true,
          "internalType": "uint256",
          "name": "id",
          "type": "uint256"
        }
      ],
      "name": "URI",
      "type": "event"
    },
    {
      "inputs": [
        {
          "internalType": "address",
          "name": "account",
          "type": "address"
        },
        {
          "internalType": "uint256",
          "name": "id",
          "type": "uint256"
        }
      ],
      "name": "balanceOf",
      "outputs": [
        {
          "internalType": "uint256",
          "name": "",
          "type": "uint256"
        }
      ],
      "stateMutability": "view",
      "type": "function"
    },
    {
      "inputs": [
        {
          "internalType": "address[]",
          "name": "accounts",
          "type": "address[]"
        },
        {
          "internalType": "uint256[]",
          "name": "ids",
          "type": "uint256[]"
        }
      ],
      "name": "balanceOfBatch",
      "outputs": [
        {
          "internalType": "uint256[]",
          "name": "",
          "type": "uint256[]"
        }
      ],
      "stateMutability": "view",
      "type": "function"
    },
    {
      "inputs": [
        {
          "internalType": "address",
          "name": "account",
          "type": "address"
        },
        {
          "internalType": "address",
          "name": "operator",
          "type": "address"
        }
      ],
      "name": "isApprovedForAll",
      "outputs": [
        {
          "internalType": "bool",
          "name": "",
          "type": "bool"
        }
      ],
      "stateMutability": "view",
      "type": "function"
    },
    {
      "inputs": [],
      "name": "owner",
      "outputs": [
        {
          "internalType": "address",
          "name": "",
          "type": "address"
        }
      ],
      "stateMutability": "view",
      "type": "function"
    },
    {
      "inputs": [],
      "name": "ownerMint",
      "outputs": [
        {
          "internalType": "bool",
          "name": "",
          "type": "bool"
        }
      ],
      "stateMutability": "view",
      "type": "function"
    },
    {
      "inputs": [],
      "name": "renounceOwnership",
      "outputs": [],
      "stateMutability": "nonpayable",
      "type": "function"
    },
    {
      "inputs": [
        {
          "internalType": "address",
          "name": "from",
          "type": "address"
        },
        {
          "internalType": "address",
          "name": "to",
          "type": "address"
        },
        {
          "internalType": "uint256[]",
          "name": "ids",
          "type": "uint256[]"
        },
        {
          "internalType": "uint256[]",
          "name": "amounts",
          "type": "uint256[]"
        },
        {
          "internalType": "bytes",
          "name": "data",
          "type": "bytes"
        }
      ],
      "name": "safeBatchTransferFrom",
      "outputs": [],
      "stateMutability": "nonpayable",
      "type": "function"
    },
    {
      "inputs": [
        {
          "internalType": "address",
          "name": "from",
          "type": "address"
        },
        {
          "internalType": "address",
          "name": "to",
          "type": "address"
        },
        {
          "internalType": "uint256",
          "name": "id",
          "type": "uint256"
        },
        {
          "internalType": "uint256",
          "name": "amount",
          "type": "uint256"
        },
        {
          "internalType": "bytes",
          "name": "data",
          "type": "bytes"
        }
      ],
      "name": "safeTransferFrom",
      "outputs": [],
      "stateMutability": "nonpayable",
      "type": "function"
    },
    {
      "inputs": [
        {
          "internalType": "address",
          "name": "operator",
          "type": "address"
        },
        {
          "internalType": "bool",
          "name": "approved",
          "type": "bool"
        }
      ],
      "name": "setApprovalForAll",
      "outputs": [],
      "stateMutability": "nonpayable",
      "type": "function"
    },
    {
      "inputs": [
        {
          "internalType": "bytes4",
          "name": "interfaceId",
          "type": "bytes4"
        }
      ],
      "name": "supportsInterface",
      "outputs": [
        {
          "internalType": "bool",
          "name": "",
          "type": "bool"
        }
      ],
      "stateMutability": "view",
      "type": "function"
    },
    {
      "inputs": [],
      "name": "tokenAddress",
      "outputs": [
        {
          "internalType": "contract IERC20",
          "name": "",
          "type": "address"
        }
      ],
      "stateMutability": "view",
      "type": "function"
    },
    {
      "inputs": [],
      "name": "tokenIndex",
      "outputs": [
        {
          "internalType": "uint256",
          "name": "",
          "type": "uint256"
        }
      ],
      "stateMutability": "view",
      "type": "function"
    },
    {
      "inputs": [
        {
          "internalType": "address",
          "name": "newOwner",
          "type": "address"
        }
      ],
      "name": "transferOwnership",
      "outputs": [],
      "stateMutability": "nonpayable",
      "type": "function"
    },
    {
      "inputs": [
        {
          "internalType": "uint256",
          "name": "",
          "type": "uint256"
        }
      ],
      "name": "uri",
      "outputs": [
        {
          "internalType": "string",
          "name": "",
          "type": "string"
        }
      ],
      "stateMutability": "view",
      "type": "function"
    },
    {
      "inputs": [
        {
          "internalType": "string",
          "name": "newuri",
          "type": "string"
        }
      ],
      "name": "setURI",
      "outputs": [],
      "stateMutability": "nonpayable",
      "type": "function"
    },
    {
      "inputs": [
        {
          "internalType": "address",
          "name": "to",
          "type": "address"
        },
        {
          "internalType": "uint256",
          "name": "quantity",
          "type": "uint256"
        }
      ],
      "name": "mint",
      "outputs": [],
      "stateMutability": "nonpayable",
      "type": "function"
    },
    {
      "inputs": [
        {
          "internalType": "address",
          "name": "to",
          "type": "address"
        },
        {
          "internalType": "uint256[]",
          "name": "ids",
          "type": "uint256[]"
        },
        {
          "internalType": "uint256[]",
          "name": "amounts",
          "type": "uint256[]"
        }
      ],
      "name": "mintBatch",
      "outputs": [],
      "stateMutability": "nonpayable",
      "type": "function"
    },
    {
      "inputs": [],
      "name": "withdraw",
      "outputs": [],
      "stateMutability": "nonpayable",
      "type": "function"
    },
    {
      "inputs": [
        {
          "internalType": "uint256",
          "name": "value",
          "type": "uint256"
        }
      ],
      "name": "setOwnerMint",
      "outputs": [],
      "stateMutability": "nonpayable",
      "type": "function"
    },
    {
      "inputs": [],
      "name": "withdrawToken",
      "outputs": [],
      "stateMutability": "nonpayable",
      "type": "function"
    }
  ],
  "bytecode": "0x608060405260006004556000600560006101000a81548160ff02191690831515021790555060646006553480156200003657600080fd5b5060405162003f4e38038062003f4e83398181016040528101906200005c9190620002bd565b6040518060400160405280600781526020017f446147616d657300000000000000000000000000000000000000000000000000815250620000a3816200010c60201b60201c565b50620000c4620000b86200012860201b60201c565b6200013060201b60201c565b80600560016101000a81548173ffffffffffffffffffffffffffffffffffffffff021916908373ffffffffffffffffffffffffffffffffffffffff16021790555050620003a7565b806002908051906020019062000124929190620001f6565b5050565b600033905090565b6000600360009054906101000a900473ffffffffffffffffffffffffffffffffffffffff16905081600360006101000a81548173ffffffffffffffffffffffffffffffffffffffff021916908373ffffffffffffffffffffffffffffffffffffffff1602179055508173ffffffffffffffffffffffffffffffffffffffff168173ffffffffffffffffffffffffffffffffffffffff167f8be0079c531659141344cd1fd0a4f28419497f9722a3daafe3b4186f6b6457e060405160405180910390a35050565b828054620002049062000323565b90600052602060002090601f01602090048101928262000228576000855562000274565b82601f106200024357805160ff191683800117855562000274565b8280016001018555821562000274579182015b828111156200027357825182559160200191906001019062000256565b5b50905062000283919062000287565b5090565b5b80821115620002a257600081600090555060010162000288565b5090565b600081519050620002b7816200038d565b92915050565b600060208284031215620002d657620002d562000388565b5b6000620002e684828501620002a6565b91505092915050565b6000620002fc8262000303565b9050919050565b600073ffffffffffffffffffffffffffffffffffffffff82169050919050565b600060028204905060018216806200033c57607f821691505b6020821081141562000353576200035262000359565b5b50919050565b7f4e487b7100000000000000000000000000000000000000000000000000000000600052602260045260246000fd5b600080fd5b6200039881620002ef565b8114620003a457600080fd5b50565b613b9780620003b76000396000f3fe608060405234801561001057600080fd5b506004361061012b5760003560e01c80638da5cb5b116100ad578063d55f927311610071578063d55f9273146102f4578063d81d0a1514610312578063e985e9c51461032e578063f242432a1461035e578063f2fde38b1461037a5761012b565b80638da5cb5b146102745780639d76ea5814610292578063a22cb465146102b0578063b12dc991146102cc578063ca628c78146102ea5761012b565b80633ccfd60b116100f45780633ccfd60b146101f857806340c10f19146102025780634e1273f41461021e578063715018a61461024e5780637eb32cda146102585761012b565b8062fdd58e1461013057806301ffc9a71461016057806302fe5305146101905780630e89341c146101ac5780632eb2c2d6146101dc575b600080fd5b61014a60048036038101906101459190612827565b610396565b604051610157919061315a565b60405180910390f35b61017a6004803603810190610175919061290c565b61045f565b6040516101879190612f02565b60405180910390f35b6101aa60048036038101906101a59190612966565b610541565b005b6101c660048036038101906101c191906129af565b6105c9565b6040516101d39190612f38565b60405180910390f35b6101f660048036038101906101f191906125f6565b61065d565b005b6102006106fe565b005b61021c60048036038101906102179190612827565b61080d565b005b61023860048036038101906102339190612867565b6109c8565b6040516102459190612ea9565b60405180910390f35b610256610ae1565b005b610272600480360381019061026d91906129af565b610b69565b005b61027c610c41565b6040516102899190612d6c565b60405180910390f35b61029a610c6b565b6040516102a79190612f1d565b60405180910390f35b6102ca60048036038101906102c591906127e7565b610c91565b005b6102d4610ca7565b6040516102e19190612f02565b60405180910390f35b6102f2610cba565b005b6102fc610e92565b604051610309919061315a565b60405180910390f35b61032c6004803603810190610327919061275c565b610e98565b005b610348600480360381019061034391906125b6565b610f34565b6040516103559190612f02565b60405180910390f35b610378600480360381019061037391906126c5565b610fc8565b005b610394600480360381019061038f9190612589565b611069565b005b60008073ffffffffffffffffffffffffffffffffffffffff168373ffffffffffffffffffffffffffffffffffffffff161415610407576040517f08c379a00000000000000000000000000000000000000000000000000000000081526004016103fe90612f9a565b60405180910390fd5b60008083815260200190815260200160002060008473ffffffffffffffffffffffffffffffffffffffff1673ffffffffffffffffffffffffffffffffffffffff16815260200190815260200160002054905092915050565b60007fd9b67a26000000000000000000000000000000000000000000000000000000007bffffffffffffffffffffffffffffffffffffffffffffffffffffffff1916827bffffffffffffffffffffffffffffffffffffffffffffffffffffffff1916148061052a57507f0e89341c000000000000000000000000000000000000000000000000000000007bffffffffffffffffffffffffffffffffffffffffffffffffffffffff1916827bffffffffffffffffffffffffffffffffffffffffffffffffffffffff1916145b8061053a575061053982611161565b5b9050919050565b6105496111cb565b73ffffffffffffffffffffffffffffffffffffffff16610567610c41565b73ffffffffffffffffffffffffffffffffffffffff16146105bd576040517f08c379a00000000000000000000000000000000000000000000000000000000081526004016105b4906130ba565b60405180910390fd5b6105c6816111d3565b50565b6060600280546105d890613430565b80601f016020809104026020016040519081016040528092919081815260200182805461060490613430565b80156106515780601f1061062657610100808354040283529160200191610651565b820191906000526020600020905b81548152906001019060200180831161063457829003601f168201915b50505050509050919050565b6106656111cb565b73ffffffffffffffffffffffffffffffffffffffff168573ffffffffffffffffffffffffffffffffffffffff1614806106ab57506106aa856106a56111cb565b610f34565b5b6106ea576040517f08c379a00000000000000000000000000000000000000000000000000000000081526004016106e19061303a565b60405180910390fd5b6106f785858585856111ed565b5050505050565b6107066111cb565b73ffffffffffffffffffffffffffffffffffffffff16610724610c41565b73ffffffffffffffffffffffffffffffffffffffff161461077a576040517f08c379a0000000000000000000000000000000000000000000000000000000008152600401610771906130ba565b60405180910390fd5b600047116107bd576040517f08c379a00000000000000000000000000000000000000000000000000000000081526004016107b49061309a565b60405180910390fd5b6107c5610c41565b73ffffffffffffffffffffffffffffffffffffffff166108fc479081150290604051600060405180830381858888f1935050505015801561080a573d6000803e3d6000fd5b50565b600560009054906101000a900460ff1615610898573373ffffffffffffffffffffffffffffffffffffffff16610841610c41565b73ffffffffffffffffffffffffffffffffffffffff1614610897576040517f08c379a000000000000000000000000000000000000000000000000000000000815260040161088e9061305a565b60405180910390fd5b5b600081116108db576040517f08c379a00000000000000000000000000000000000000000000000000000000081526004016108d290612ffa565b60405180910390fd5b600560019054906101000a900473ffffffffffffffffffffffffffffffffffffffff1673ffffffffffffffffffffffffffffffffffffffff166323b872dd33306006546040518463ffffffff1660e01b815260040161093c93929190612def565b602060405180830381600087803b15801561095657600080fd5b505af115801561096a573d6000803e3d6000fd5b505050506040513d601f19601f8201168201806040525081019061098e91906128df565b506109ac82600454836040518060200160405280600081525061150f565b600460008154809291906109bf90613493565b91905055505050565b60608151835114610a0e576040517f08c379a0000000000000000000000000000000000000000000000000000000008152600401610a05906130fa565b60405180910390fd5b6000835167ffffffffffffffff811115610a2b57610a2a613569565b5b604051908082528060200260200182016040528015610a595781602001602082028036833780820191505090505b50905060005b8451811015610ad657610aa6858281518110610a7e57610a7d61353a565b5b6020026020010151858381518110610a9957610a9861353a565b5b6020026020010151610396565b828281518110610ab957610ab861353a565b5b60200260200101818152505080610acf90613493565b9050610a5f565b508091505092915050565b610ae96111cb565b73ffffffffffffffffffffffffffffffffffffffff16610b07610c41565b73ffffffffffffffffffffffffffffffffffffffff1614610b5d576040517f08c379a0000000000000000000000000000000000000000000000000000000008152600401610b54906130ba565b60405180910390fd5b610b6760006116c0565b565b610b716111cb565b73ffffffffffffffffffffffffffffffffffffffff16610b8f610c41565b73ffffffffffffffffffffffffffffffffffffffff1614610be5576040517f08c379a0000000000000000000000000000000000000000000000000000000008152600401610bdc906130ba565b60405180910390fd5b6000811415610c0e576000600560006101000a81548160ff021916908315150217905550610c3d565b6001811415610c37576001600560006101000a81548160ff021916908315150217905550610c3c565b610c3e565b5b5b50565b6000600360009054906101000a900473ffffffffffffffffffffffffffffffffffffffff16905090565b600560019054906101000a900473ffffffffffffffffffffffffffffffffffffffff1681565b610ca3610c9c6111cb565b8383611786565b5050565b600560009054906101000a900460ff1681565b610cc26111cb565b73ffffffffffffffffffffffffffffffffffffffff16610ce0610c41565b73ffffffffffffffffffffffffffffffffffffffff1614610d36576040517f08c379a0000000000000000000000000000000000000000000000000000000008152600401610d2d906130ba565b60405180910390fd5b600560019054906101000a900473ffffffffffffffffffffffffffffffffffffffff1673ffffffffffffffffffffffffffffffffffffffff1663a9059cbb33600560019054906101000a900473ffffffffffffffffffffffffffffffffffffffff1673ffffffffffffffffffffffffffffffffffffffff166370a08231306040518263ffffffff1660e01b8152600401610dd09190612d6c565b60206040518083038186803b158015610de857600080fd5b505afa158015610dfc573d6000803e3d6000fd5b505050506040513d601f19601f82011682018060405250810190610e2091906129dc565b6040518363ffffffff1660e01b8152600401610e3d929190612e80565b602060405180830381600087803b158015610e5757600080fd5b505af1158015610e6b573d6000803e3d6000fd5b505050506040513d601f19601f82011682018060405250810190610e8f91906128df565b50565b60045481565b610ea06111cb565b73ffffffffffffffffffffffffffffffffffffffff16610ebe610c41565b73ffffffffffffffffffffffffffffffffffffffff1614610f14576040517f08c379a0000000000000000000000000000000000000000000000000000000008152600401610f0b906130ba565b60405180910390fd5b610f2f838383604051806020016040528060008152506118f3565b505050565b6000600160008473ffffffffffffffffffffffffffffffffffffffff1673ffffffffffffffffffffffffffffffffffffffff16815260200190815260200160002060008373ffffffffffffffffffffffffffffffffffffffff1673ffffffffffffffffffffffffffffffffffffffff16815260200190815260200160002060009054906101000a900460ff16905092915050565b610fd06111cb565b73ffffffffffffffffffffffffffffffffffffffff168573ffffffffffffffffffffffffffffffffffffffff1614806110165750611015856110106111cb565b610f34565b5b611055576040517f08c379a000000000000000000000000000000000000000000000000000000000815260040161104c90612fda565b60405180910390fd5b6110628585858585611b20565b5050505050565b6110716111cb565b73ffffffffffffffffffffffffffffffffffffffff1661108f610c41565b73ffffffffffffffffffffffffffffffffffffffff16146110e5576040517f08c379a00000000000000000000000000000000000000000000000000000000081526004016110dc906130ba565b60405180910390fd5b600073ffffffffffffffffffffffffffffffffffffffff168173ffffffffffffffffffffffffffffffffffffffff161415611155576040517f08c379a000000000000000000000000000000000000000000000000000000000815260040161114c90612fba565b60405180910390fd5b61115e816116c0565b50565b60007f01ffc9a7000000000000000000000000000000000000000000000000000000007bffffffffffffffffffffffffffffffffffffffffffffffffffffffff1916827bffffffffffffffffffffffffffffffffffffffffffffffffffffffff1916149050919050565b600033905090565b80600290805190602001906111e9929190612237565b5050565b8151835114611231576040517f08c379a00000000000000000000000000000000000000000000000000000000081526004016112289061311a565b60405180910390fd5b600073ffffffffffffffffffffffffffffffffffffffff168473ffffffffffffffffffffffffffffffffffffffff1614156112a1576040517f08c379a00000000000000000000000000000000000000000000000000000000081526004016112989061301a565b60405180910390fd5b60006112ab6111cb565b90506112bb818787878787611dbc565b60005b845181101561146c5760008582815181106112dc576112db61353a565b5b6020026020010151905060008583815181106112fb576112fa61353a565b5b60200260200101519050600080600084815260200190815260200160002060008b73ffffffffffffffffffffffffffffffffffffffff1673ffffffffffffffffffffffffffffffffffffffff1681526020019081526020016000205490508181101561139c576040517f08c379a00000000000000000000000000000000000000000000000000000000081526004016113939061307a565b60405180910390fd5b81810360008085815260200190815260200160002060008c73ffffffffffffffffffffffffffffffffffffffff1673ffffffffffffffffffffffffffffffffffffffff168152602001908152602001600020819055508160008085815260200190815260200160002060008b73ffffffffffffffffffffffffffffffffffffffff1673ffffffffffffffffffffffffffffffffffffffff168152602001908152602001600020600082825461145191906132ee565b925050819055505050508061146590613493565b90506112be565b508473ffffffffffffffffffffffffffffffffffffffff168673ffffffffffffffffffffffffffffffffffffffff168273ffffffffffffffffffffffffffffffffffffffff167f4a39dc06d4c0dbc64b70af90fd698a233a518aa5d07e595d983b8c0526c8f7fb87876040516114e3929190612ecb565b60405180910390a46114f9818787878787611dc4565b611507818787878787611dcc565b505050505050565b600073ffffffffffffffffffffffffffffffffffffffff168473ffffffffffffffffffffffffffffffffffffffff16141561157f576040517f08c379a00000000000000000000000000000000000000000000000000000000081526004016115769061313a565b60405180910390fd5b60006115896111cb565b9050600061159685611fb3565b905060006115a385611fb3565b90506115b483600089858589611dbc565b8460008088815260200190815260200160002060008973ffffffffffffffffffffffffffffffffffffffff1673ffffffffffffffffffffffffffffffffffffffff168152602001908152602001600020600082825461161391906132ee565b925050819055508673ffffffffffffffffffffffffffffffffffffffff16600073ffffffffffffffffffffffffffffffffffffffff168473ffffffffffffffffffffffffffffffffffffffff167fc3d58168c5ae7397731d063d5bbf3d657854427343f4c083240f7aacaa2d0f628989604051611691929190613175565b60405180910390a46116a883600089858589611dc4565b6116b78360008989898961202d565b50505050505050565b6000600360009054906101000a900473ffffffffffffffffffffffffffffffffffffffff16905081600360006101000a81548173ffffffffffffffffffffffffffffffffffffffff021916908373ffffffffffffffffffffffffffffffffffffffff1602179055508173ffffffffffffffffffffffffffffffffffffffff168173ffffffffffffffffffffffffffffffffffffffff167f8be0079c531659141344cd1fd0a4f28419497f9722a3daafe3b4186f6b6457e060405160405180910390a35050565b8173ffffffffffffffffffffffffffffffffffffffff168373ffffffffffffffffffffffffffffffffffffffff1614156117f5576040517f08c379a00000000000000000000000000000000000000000000000000000000081526004016117ec906130da565b60405180910390fd5b80600160008573ffffffffffffffffffffffffffffffffffffffff1673ffffffffffffffffffffffffffffffffffffffff16815260200190815260200160002060008473ffffffffffffffffffffffffffffffffffffffff1673ffffffffffffffffffffffffffffffffffffffff16815260200190815260200160002060006101000a81548160ff0219169083151502179055508173ffffffffffffffffffffffffffffffffffffffff168373ffffffffffffffffffffffffffffffffffffffff167f17307eab39ab6107e8899845ad3d59bd9653f200f220920489ca2b5937696c31836040516118e69190612f02565b60405180910390a3505050565b600073ffffffffffffffffffffffffffffffffffffffff168473ffffffffffffffffffffffffffffffffffffffff161415611963576040517f08c379a000000000000000000000000000000000000000000000000000000000815260040161195a9061313a565b60405180910390fd5b81518351146119a7576040517f08c379a000000000000000000000000000000000000000000000000000000000815260040161199e9061311a565b60405180910390fd5b60006119b16111cb565b90506119c281600087878787611dbc565b60005b8451811015611a7b578381815181106119e1576119e061353a565b5b60200260200101516000808784815181106119ff576119fe61353a565b5b6020026020010151815260200190815260200160002060008873ffffffffffffffffffffffffffffffffffffffff1673ffffffffffffffffffffffffffffffffffffffff1681526020019081526020016000206000828254611a6191906132ee565b925050819055508080611a7390613493565b9150506119c5565b508473ffffffffffffffffffffffffffffffffffffffff16600073ffffffffffffffffffffffffffffffffffffffff168273ffffffffffffffffffffffffffffffffffffffff167f4a39dc06d4c0dbc64b70af90fd698a233a518aa5d07e595d983b8c0526c8f7fb8787604051611af3929190612ecb565b60405180910390a4611b0a81600087878787611dc4565b611b1981600087878787611dcc565b5050505050565b600073ffffffffffffffffffffffffffffffffffffffff168473ffffffffffffffffffffffffffffffffffffffff161415611b90576040517f08c379a0000000000000000000000000000000000000000000000000000000008152600401611b879061301a565b60405180910390fd5b6000611b9a6111cb565b90506000611ba785611fb3565b90506000611bb485611fb3565b9050611bc4838989858589611dbc565b600080600088815260200190815260200160002060008a73ffffffffffffffffffffffffffffffffffffffff1673ffffffffffffffffffffffffffffffffffffffff16815260200190815260200160002054905085811015611c5b576040517f08c379a0000000000000000000000000000000000000000000000000000000008152600401611c529061307a565b60405180910390fd5b85810360008089815260200190815260200160002060008b73ffffffffffffffffffffffffffffffffffffffff1673ffffffffffffffffffffffffffffffffffffffff168152602001908152602001600020819055508560008089815260200190815260200160002060008a73ffffffffffffffffffffffffffffffffffffffff1673ffffffffffffffffffffffffffffffffffffffff1681526020019081526020016000206000828254611d1091906132ee565b925050819055508773ffffffffffffffffffffffffffffffffffffffff168973ffffffffffffffffffffffffffffffffffffffff168573ffffffffffffffffffffffffffffffffffffffff167fc3d58168c5ae7397731d063d5bbf3d657854427343f4c083240f7aacaa2d0f628a8a604051611d8d929190613175565b60405180910390a4611da3848a8a86868a611dc4565b611db1848a8a8a8a8a61202d565b505050505050505050565b505050505050565b505050505050565b611deb8473ffffffffffffffffffffffffffffffffffffffff16612214565b15611fab578373ffffffffffffffffffffffffffffffffffffffff1663bc197c8187878686866040518663ffffffff1660e01b8152600401611e31959493929190612d87565b602060405180830381600087803b158015611e4b57600080fd5b505af1925050508015611e7c57506040513d601f19601f82011682018060405250810190611e799190612939565b60015b611f2257611e88613598565b806308c379a01415611ee55750611e9d613a6f565b80611ea85750611ee7565b806040517f08c379a0000000000000000000000000000000000000000000000000000000008152600401611edc9190612f38565b60405180910390fd5b505b6040517f08c379a0000000000000000000000000000000000000000000000000000000008152600401611f1990612f5a565b60405180910390fd5b63bc197c8160e01b7bffffffffffffffffffffffffffffffffffffffffffffffffffffffff1916817bffffffffffffffffffffffffffffffffffffffffffffffffffffffff191614611fa9576040517f08c379a0000000000000000000000000000000000000000000000000000000008152600401611fa090612f7a565b60405180910390fd5b505b505050505050565b60606000600167ffffffffffffffff811115611fd257611fd1613569565b5b6040519080825280602002602001820160405280156120005781602001602082028036833780820191505090505b50905082816000815181106120185761201761353a565b5b60200260200101818152505080915050919050565b61204c8473ffffffffffffffffffffffffffffffffffffffff16612214565b1561220c578373ffffffffffffffffffffffffffffffffffffffff1663f23a6e6187878686866040518663ffffffff1660e01b8152600401612092959493929190612e26565b602060405180830381600087803b1580156120ac57600080fd5b505af19250505080156120dd57506040513d601f19601f820116820180604052508101906120da9190612939565b60015b612183576120e9613598565b806308c379a0141561214657506120fe613a6f565b806121095750612148565b806040517f08c379a000000000000000000000000000000000000000000000000000000000815260040161213d9190612f38565b60405180910390fd5b505b6040517f08c379a000000000000000000000000000000000000000000000000000000000815260040161217a90612f5a565b60405180910390fd5b63f23a6e6160e01b7bffffffffffffffffffffffffffffffffffffffffffffffffffffffff1916817bffffffffffffffffffffffffffffffffffffffffffffffffffffffff19161461220a576040517f08c379a000000000000000000000000000000000000000000000000000000000815260040161220190612f7a565b60405180910390fd5b505b505050505050565b6000808273ffffffffffffffffffffffffffffffffffffffff163b119050919050565b82805461224390613430565b90600052602060002090601f01602090048101928261226557600085556122ac565b82601f1061227e57805160ff19168380011785556122ac565b828001600101855582156122ac579182015b828111156122ab578251825591602001919060010190612290565b5b5090506122b991906122bd565b5090565b5b808211156122d65760008160009055506001016122be565b5090565b60006122ed6122e8846131c3565b61319e565b905080838252602082019050828560208602820111156123105761230f6135bf565b5b60005b858110156123405781612326888261243e565b845260208401935060208301925050600181019050612313565b5050509392505050565b600061235d612358846131ef565b61319e565b905080838252602082019050828560208602820111156123805761237f6135bf565b5b60005b858110156123b05781612396888261255f565b845260208401935060208301925050600181019050612383565b5050509392505050565b60006123cd6123c88461321b565b61319e565b9050828152602081018484840111156123e9576123e86135c4565b5b6123f48482856133ee565b509392505050565b600061240f61240a8461324c565b61319e565b90508281526020810184848401111561242b5761242a6135c4565b5b6124368482856133ee565b509392505050565b60008135905061244d81613b05565b92915050565b600082601f830112612468576124676135ba565b5b81356124788482602086016122da565b91505092915050565b600082601f830112612496576124956135ba565b5b81356124a684826020860161234a565b91505092915050565b6000813590506124be81613b1c565b92915050565b6000815190506124d381613b1c565b92915050565b6000813590506124e881613b33565b92915050565b6000815190506124fd81613b33565b92915050565b600082601f830112612518576125176135ba565b5b81356125288482602086016123ba565b91505092915050565b600082601f830112612546576125456135ba565b5b81356125568482602086016123fc565b91505092915050565b60008135905061256e81613b4a565b92915050565b60008151905061258381613b4a565b92915050565b60006020828403121561259f5761259e6135ce565b5b60006125ad8482850161243e565b91505092915050565b600080604083850312156125cd576125cc6135ce565b5b60006125db8582860161243e565b92505060206125ec8582860161243e565b9150509250929050565b600080600080600060a08688031215612612576126116135ce565b5b60006126208882890161243e565b95505060206126318882890161243e565b945050604086013567ffffffffffffffff811115612652576126516135c9565b5b61265e88828901612481565b935050606086013567ffffffffffffffff81111561267f5761267e6135c9565b5b61268b88828901612481565b925050608086013567ffffffffffffffff8111156126ac576126ab6135c9565b5b6126b888828901612503565b9150509295509295909350565b600080600080600060a086880312156126e1576126e06135ce565b5b60006126ef8882890161243e565b95505060206127008882890161243e565b94505060406127118882890161255f565b93505060606127228882890161255f565b925050608086013567ffffffffffffffff811115612743576127426135c9565b5b61274f88828901612503565b9150509295509295909350565b600080600060608486031215612775576127746135ce565b5b60006127838682870161243e565b935050602084013567ffffffffffffffff8111156127a4576127a36135c9565b5b6127b086828701612481565b925050604084013567ffffffffffffffff8111156127d1576127d06135c9565b5b6127dd86828701612481565b9150509250925092565b600080604083850312156127fe576127fd6135ce565b5b600061280c8582860161243e565b925050602061281d858286016124af565b9150509250929050565b6000806040838503121561283e5761283d6135ce565b5b600061284c8582860161243e565b925050602061285d8582860161255f565b9150509250929050565b6000806040838503121561287e5761287d6135ce565b5b600083013567ffffffffffffffff81111561289c5761289b6135c9565b5b6128a885828601612453565b925050602083013567ffffffffffffffff8111156128c9576128c86135c9565b5b6128d585828601612481565b9150509250929050565b6000602082840312156128f5576128f46135ce565b5b6000612903848285016124c4565b91505092915050565b600060208284031215612922576129216135ce565b5b6000612930848285016124d9565b91505092915050565b60006020828403121561294f5761294e6135ce565b5b600061295d848285016124ee565b91505092915050565b60006020828403121561297c5761297b6135ce565b5b600082013567ffffffffffffffff81111561299a576129996135c9565b5b6129a684828501612531565b91505092915050565b6000602082840312156129c5576129c46135ce565b5b60006129d38482850161255f565b91505092915050565b6000602082840312156129f2576129f16135ce565b5b6000612a0084828501612574565b91505092915050565b6000612a158383612d4e565b60208301905092915050565b612a2a81613344565b82525050565b6000612a3b8261328d565b612a4581856132bb565b9350612a508361327d565b8060005b83811015612a81578151612a688882612a09565b9750612a73836132ae565b925050600181019050612a54565b5085935050505092915050565b612a9781613356565b82525050565b6000612aa882613298565b612ab281856132cc565b9350612ac28185602086016133fd565b612acb816135d3565b840191505092915050565b612adf816133b8565b82525050565b6000612af0826132a3565b612afa81856132dd565b9350612b0a8185602086016133fd565b612b13816135d3565b840191505092915050565b6000612b2b6034836132dd565b9150612b36826135f1565b604082019050919050565b6000612b4e6028836132dd565b9150612b5982613640565b604082019050919050565b6000612b71602b836132dd565b9150612b7c8261368f565b604082019050919050565b6000612b946026836132dd565b9150612b9f826136de565b604082019050919050565b6000612bb76029836132dd565b9150612bc28261372d565b604082019050919050565b6000612bda6021836132dd565b9150612be58261377c565b604082019050919050565b6000612bfd6025836132dd565b9150612c08826137cb565b604082019050919050565b6000612c206032836132dd565b9150612c2b8261381a565b604082019050919050565b6000612c436013836132dd565b9150612c4e82613869565b602082019050919050565b6000612c66602a836132dd565b9150612c7182613892565b604082019050919050565b6000612c89600c836132dd565b9150612c94826138e1565b602082019050919050565b6000612cac6020836132dd565b9150612cb78261390a565b602082019050919050565b6000612ccf6029836132dd565b9150612cda82613933565b604082019050919050565b6000612cf26029836132dd565b9150612cfd82613982565b604082019050919050565b6000612d156028836132dd565b9150612d20826139d1565b604082019050919050565b6000612d386021836132dd565b9150612d4382613a20565b604082019050919050565b612d57816133ae565b82525050565b612d66816133ae565b82525050565b6000602082019050612d816000830184612a21565b92915050565b600060a082019050612d9c6000830188612a21565b612da96020830187612a21565b8181036040830152612dbb8186612a30565b90508181036060830152612dcf8185612a30565b90508181036080830152612de38184612a9d565b90509695505050505050565b6000606082019050612e046000830186612a21565b612e116020830185612a21565b612e1e6040830184612d5d565b949350505050565b600060a082019050612e3b6000830188612a21565b612e486020830187612a21565b612e556040830186612d5d565b612e626060830185612d5d565b8181036080830152612e748184612a9d565b90509695505050505050565b6000604082019050612e956000830185612a21565b612ea26020830184612d5d565b9392505050565b60006020820190508181036000830152612ec38184612a30565b905092915050565b60006040820190508181036000830152612ee58185612a30565b90508181036020830152612ef98184612a30565b90509392505050565b6000602082019050612f176000830184612a8e565b92915050565b6000602082019050612f326000830184612ad6565b92915050565b60006020820190508181036000830152612f528184612ae5565b905092915050565b60006020820190508181036000830152612f7381612b1e565b9050919050565b60006020820190508181036000830152612f9381612b41565b9050919050565b60006020820190508181036000830152612fb381612b64565b9050919050565b60006020820190508181036000830152612fd381612b87565b9050919050565b60006020820190508181036000830152612ff381612baa565b9050919050565b6000602082019050818103600083015261301381612bcd565b9050919050565b6000602082019050818103600083015261303381612bf0565b9050919050565b6000602082019050818103600083015261305381612c13565b9050919050565b6000602082019050818103600083015261307381612c36565b9050919050565b6000602082019050818103600083015261309381612c59565b9050919050565b600060208201905081810360008301526130b381612c7c565b9050919050565b600060208201905081810360008301526130d381612c9f565b9050919050565b600060208201905081810360008301526130f381612cc2565b9050919050565b6000602082019050818103600083015261311381612ce5565b9050919050565b6000602082019050818103600083015261313381612d08565b9050919050565b6000602082019050818103600083015261315381612d2b565b9050919050565b600060208201905061316f6000830184612d5d565b92915050565b600060408201905061318a6000830185612d5d565b6131976020830184612d5d565b9392505050565b60006131a86131b9565b90506131b48282613462565b919050565b6000604051905090565b600067ffffffffffffffff8211156131de576131dd613569565b5b602082029050602081019050919050565b600067ffffffffffffffff82111561320a57613209613569565b5b602082029050602081019050919050565b600067ffffffffffffffff82111561323657613235613569565b5b61323f826135d3565b9050602081019050919050565b600067ffffffffffffffff82111561326757613266613569565b5b613270826135d3565b9050602081019050919050565b6000819050602082019050919050565b600081519050919050565b600081519050919050565b600081519050919050565b6000602082019050919050565b600082825260208201905092915050565b600082825260208201905092915050565b600082825260208201905092915050565b60006132f9826133ae565b9150613304836133ae565b9250827fffffffffffffffffffffffffffffffffffffffffffffffffffffffffffffffff03821115613339576133386134dc565b5b828201905092915050565b600061334f8261338e565b9050919050565b60008115159050919050565b60007fffffffff0000000000000000000000000000000000000000000000000000000082169050919050565b600073ffffffffffffffffffffffffffffffffffffffff82169050919050565b6000819050919050565b60006133c3826133ca565b9050919050565b60006133d5826133dc565b9050919050565b60006133e78261338e565b9050919050565b82818337600083830152505050565b60005b8381101561341b578082015181840152602081019050613400565b8381111561342a576000848401525b50505050565b6000600282049050600182168061344857607f821691505b6020821081141561345c5761345b61350b565b5b50919050565b61346b826135d3565b810181811067ffffffffffffffff8211171561348a57613489613569565b5b80604052505050565b600061349e826133ae565b91507fffffffffffffffffffffffffffffffffffffffffffffffffffffffffffffffff8214156134d1576134d06134dc565b5b600182019050919050565b7f4e487b7100000000000000000000000000000000000000000000000000000000600052601160045260246000fd5b7f4e487b7100000000000000000000000000000000000000000000000000000000600052602260045260246000fd5b7f4e487b7100000000000000000000000000000000000000000000000000000000600052603260045260246000fd5b7f4e487b7100000000000000000000000000000000000000000000000000000000600052604160045260246000fd5b600060033d11156135b75760046000803e6135b46000516135e4565b90505b90565b600080fd5b600080fd5b600080fd5b600080fd5b600080fd5b6000601f19601f8301169050919050565b60008160e01c9050919050565b7f455243313135353a207472616e7366657220746f206e6f6e204552433131353560008201527f526563656976657220696d706c656d656e746572000000000000000000000000602082015250565b7f455243313135353a204552433131353552656365697665722072656a6563746560008201527f6420746f6b656e73000000000000000000000000000000000000000000000000602082015250565b7f455243313135353a2062616c616e636520717565727920666f7220746865207a60008201527f65726f2061646472657373000000000000000000000000000000000000000000602082015250565b7f4f776e61626c653a206e6577206f776e657220697320746865207a65726f206160008201527f6464726573730000000000000000000000000000000000000000000000000000602082015250565b7f455243313135353a2063616c6c6572206973206e6f74206f776e6572206e6f7260008201527f20617070726f7665640000000000000000000000000000000000000000000000602082015250565b7f5175616e746974792073686f756c6420626520686967686572207468616e203060008201527f2000000000000000000000000000000000000000000000000000000000000000602082015250565b7f455243313135353a207472616e7366657220746f20746865207a65726f20616460008201527f6472657373000000000000000000000000000000000000000000000000000000602082015250565b7f455243313135353a207472616e736665722063616c6c6572206973206e6f742060008201527f6f776e6572206e6f7220617070726f7665640000000000000000000000000000602082015250565b7f4f6e6c79206f776e65722063616e206d696e7400000000000000000000000000600082015250565b7f455243313135353a20696e73756666696369656e742062616c616e636520666f60008201527f72207472616e7366657200000000000000000000000000000000000000000000602082015250565b7f42616c616e636520697320300000000000000000000000000000000000000000600082015250565b7f4f776e61626c653a2063616c6c6572206973206e6f7420746865206f776e6572600082015250565b7f455243313135353a2073657474696e6720617070726f76616c2073746174757360008201527f20666f722073656c660000000000000000000000000000000000000000000000602082015250565b7f455243313135353a206163636f756e747320616e6420696473206c656e67746860008201527f206d69736d617463680000000000000000000000000000000000000000000000602082015250565b7f455243313135353a2069647320616e6420616d6f756e7473206c656e6774682060008201527f6d69736d61746368000000000000000000000000000000000000000000000000602082015250565b7f455243313135353a206d696e7420746f20746865207a65726f2061646472657360008201527f7300000000000000000000000000000000000000000000000000000000000000602082015250565b600060443d1015613a7f57613b02565b613a876131b9565b60043d036004823e80513d602482011167ffffffffffffffff82111715613aaf575050613b02565b808201805167ffffffffffffffff811115613acd5750505050613b02565b80602083010160043d038501811115613aea575050505050613b02565b613af982602001850186613462565b82955050505050505b90565b613b0e81613344565b8114613b1957600080fd5b50565b613b2581613356565b8114613b3057600080fd5b50565b613b3c81613362565b8114613b4757600080fd5b50565b613b53816133ae565b8114613b5e57600080fd5b5056fea26469706673582212209a5e21980c0a3a35fd80a293e512b7923c8be271677dbcc56bfb95dd0558496064736f6c63430008070033",
  "immutableReferences": {},
  "source": "// SPDX-License-Identifier: MIT\npragma solidity ^0.8.4;\nimport \"@openzeppelin/contracts/token/ERC20/IERC20.sol\";\nimport \"@openzeppelin/contracts/token/ERC1155/ERC1155.sol\";\nimport \"@openzeppelin/contracts/access/Ownable.sol\";\n\ncontract DaGames is ERC1155, Ownable {\n    uint256 public tokenIndex = 0;\n    bool public ownerMint = false;\n    IERC20 public tokenAddress ;\n    uint256 rate = 100;\n    constructor( address _tokenAddress) ERC1155(\"DaGames\") {\n        tokenAddress = IERC20(_tokenAddress);\n\n    }\n\n    function setURI(string memory newuri) public onlyOwner {\n        _setURI(newuri);\n    }\n\n    function mint(address to, uint256 quantity) public {\n        if (ownerMint) {\n            require(owner() == msg.sender, \"Only owner can mint\");\n        }\n        require(quantity > 0, \"Quantity should be higher than 0 \");\n        tokenAddress.transferFrom(msg.sender, address(this),rate);\n        _mint(to, tokenIndex, quantity, \"\");\n        tokenIndex++;\n    }\n\n    function mintBatch(\n        address to,\n        uint256[] memory ids,\n        uint256[] memory amounts\n    ) public onlyOwner {\n        _mintBatch(to, ids, amounts, \"\");\n    }\n\n    function withdraw() public onlyOwner {\n        require(address(this).balance > 0, \"Balance is 0\");\n        payable(owner()).transfer(address(this).balance);\n    }\n\n    function setOwnerMint(uint256 value) public onlyOwner {\n        if (value == 0) {\n            ownerMint = false;\n        } else if (value == 1) {\n            ownerMint = true;\n        } else {\n            return;\n        }\n\n    }\n    // function transferSellOrder( address from, address to, uint256 tokenId) external payable{\n    //         _transferSellOrder(from, to, tokenId);\n\n    // } \n\n    function withdrawToken()public onlyOwner{\n        tokenAddress.transfer(msg.sender, tokenAddress.balanceOf(address(this)));\n    }\n}\n",
  "sourcePath": "/home/dev-lap-2/Desktop/WORK/Contracts/DaContractNA/contracts/DaGames.sol",
  "compiler": {
    "name": "solc",
    "version": "0.8.7+commit.e28d00a7.Emscripten.clang"
  },
  "schemaVersion": "3.4.7",
  "updatedAt": "2022-07-05T08:13:23.059Z",
  "devdoc": {
    "kind": "dev",
    "methods": {
      "balanceOf(address,uint256)": {
        "details": "See {IERC1155-balanceOf}. Requirements: - `account` cannot be the zero address."
      },
      "balanceOfBatch(address[],uint256[])": {
        "details": "See {IERC1155-balanceOfBatch}. Requirements: - `accounts` and `ids` must have the same length."
      },
      "isApprovedForAll(address,address)": {
        "details": "See {IERC1155-isApprovedForAll}."
      },
      "owner()": {
        "details": "Returns the address of the current owner."
      },
      "renounceOwnership()": {
        "details": "Leaves the contract without owner. It will not be possible to call `onlyOwner` functions anymore. Can only be called by the current owner. NOTE: Renouncing ownership will leave the contract without an owner, thereby removing any functionality that is only available to the owner."
      },
      "safeBatchTransferFrom(address,address,uint256[],uint256[],bytes)": {
        "details": "See {IERC1155-safeBatchTransferFrom}."
      },
      "safeTransferFrom(address,address,uint256,uint256,bytes)": {
        "details": "See {IERC1155-safeTransferFrom}."
      },
      "setApprovalForAll(address,bool)": {
        "details": "See {IERC1155-setApprovalForAll}."
      },
      "supportsInterface(bytes4)": {
        "details": "See {IERC165-supportsInterface}."
      },
      "transferOwnership(address)": {
        "details": "Transfers ownership of the contract to a new account (`newOwner`). Can only be called by the current owner."
      },
      "uri(uint256)": {
        "details": "See {IERC1155MetadataURI-uri}. This implementation returns the same URI for *all* token types. It relies on the token type ID substitution mechanism https://eips.ethereum.org/EIPS/eip-1155#metadata[defined in the EIP]. Clients calling this function must replace the `\\{id\\}` substring with the actual token type ID."
      }
    },
    "version": 1
  },
  "userdoc": {
    "kind": "user",
    "methods": {},
    "version": 1
  }
}