{
    "contractName": "Marketplace",
    "abi": [
        {
            "inputs": [
                {
                    "internalType": "address",
                    "name": "_nftContract",
                    "type": "address"
                }
            ],
            "stateMutability": "nonpayable",
            "type": "constructor"
        },
        {
            "inputs": [
                {
                    "internalType": "uint256",
                    "name": "",
                    "type": "uint256"
                }
            ],
            "name": "nftOrigin",
            "outputs": [
                {
                    "internalType": "address",
                    "name": "",
                    "type": "address"
                }
            ],
            "stateMutability": "view",
            "type": "function",
            "constant": true
        },
        {
            "inputs": [
                {
                    "internalType": "address",
                    "name": "",
                    "type": "address"
                },
                {
                    "internalType": "address",
                    "name": "",
                    "type": "address"
                },
                {
                    "internalType": "uint256[]",
                    "name": "",
                    "type": "uint256[]"
                },
                {
                    "internalType": "uint256[]",
                    "name": "",
                    "type": "uint256[]"
                },
                {
                    "internalType": "bytes",
                    "name": "",
                    "type": "bytes"
                }
            ],
            "name": "onERC1155BatchReceived",
            "outputs": [
                {
                    "internalType": "bytes4",
                    "name": "",
                    "type": "bytes4"
                }
            ],
            "stateMutability": "nonpayable",
            "type": "function"
        },
        {
            "inputs": [
                {
                    "internalType": "address",
                    "name": "",
                    "type": "address"
                },
                {
                    "internalType": "address",
                    "name": "",
                    "type": "address"
                },
                {
                    "internalType": "uint256",
                    "name": "",
                    "type": "uint256"
                },
                {
                    "internalType": "uint256",
                    "name": "",
                    "type": "uint256"
                },
                {
                    "internalType": "bytes",
                    "name": "",
                    "type": "bytes"
                }
            ],
            "name": "onERC1155Received",
            "outputs": [
                {
                    "internalType": "bytes4",
                    "name": "",
                    "type": "bytes4"
                }
            ],
            "stateMutability": "nonpayable",
            "type": "function"
        },
        {
            "inputs": [
                {
                    "internalType": "bytes4",
                    "name": "interfaceId",
                    "type": "bytes4"
                }
            ],
            "name": "supportsInterface",
            "outputs": [
                {
                    "internalType": "bool",
                    "name": "",
                    "type": "bool"
                }
            ],
            "stateMutability": "view",
            "type": "function",
            "constant": true
        },
        {
            "inputs": [
                {
                    "internalType": "uint256",
                    "name": "nftId",
                    "type": "uint256"
                },
                {
                    "internalType": "uint256",
                    "name": "amount",
                    "type": "uint256"
                },
                {
                    "internalType": "uint256",
                    "name": "price",
                    "type": "uint256"
                },
                {
                    "internalType": "uint256",
                    "name": "royalty",
                    "type": "uint256"
                }
            ],
            "name": "listNft",
            "outputs": [],
            "stateMutability": "nonpayable",
            "type": "function"
        },
        {
            "inputs": [
                {
                    "internalType": "uint256",
                    "name": "tokenId",
                    "type": "uint256"
                },
                {
                    "internalType": "uint256",
                    "name": "amount",
                    "type": "uint256"
                }
            ],
            "name": "buyNFT",
            "outputs": [],
            "stateMutability": "payable",
            "type": "function",
            "payable": true
        }
    ],
    "bytecode": "0x608060405260196004553480156200001657600080fd5b50604051620015883803806200158883398181016040528101906200003c91906200009b565b80600260006101000a81548173ffffffffffffffffffffffffffffffffffffffff021916908373ffffffffffffffffffffffffffffffffffffffff1602179055505062000120565b600081519050620000958162000106565b92915050565b600060208284031215620000b457620000b362000101565b5b6000620000c48482850162000084565b91505092915050565b6000620000da82620000e1565b9050919050565b600073ffffffffffffffffffffffffffffffffffffffff82169050919050565b600080fd5b6200011181620000cd565b81146200011d57600080fd5b50565b61145880620001306000396000f3fe6080604052600436106100555760003560e01c806301ffc9a71461005a578063031ee48a1461009757806309beddb4146100c05780631d85bf03146100fd578063bc197c8114610119578063f23a6e6114610156575b600080fd5b34801561006657600080fd5b50610081600480360381019061007c9190610c48565b610193565b60405161008e9190610f31565b60405180910390f35b3480156100a357600080fd5b506100be60048036038101906100b99190610ce2565b61020d565b005b3480156100cc57600080fd5b506100e760048036038101906100e29190610c75565b6105cd565b6040516100f49190610e66565b60405180910390f35b61011760048036038101906101129190610ca2565b610600565b005b34801561012557600080fd5b50610140600480360381019061013b9190610ae2565b6108dd565b60405161014d9190610f4c565b60405180910390f35b34801561016257600080fd5b5061017d60048036038101906101789190610bb1565b6108f2565b60405161018a9190610f4c565b60405180910390f35b60007f4e2312e0000000000000000000000000000000000000000000000000000000007bffffffffffffffffffffffffffffffffffffffffffffffffffffffff1916827bffffffffffffffffffffffffffffffffffffffffffffffffffffffff19161480610206575061020582610907565b5b9050919050565b60008411610250576040517f08c379a000000000000000000000000000000000000000000000000000000000815260040161024790610f87565b60405180910390fd5b6000811015610294576040517f08c379a000000000000000000000000000000000000000000000000000000000815260040161028b90610f67565b60405180910390fd5b601d81106102d7576040517f08c379a00000000000000000000000000000000000000000000000000000000081526004016102ce90610fc7565b60405180910390fd5b6102e16000610971565b60006102ed6000610987565b90506040518061012001604052808281526020018681526020018581526020018481526020018381526020013373ffffffffffffffffffffffffffffffffffffffff1681526020013373ffffffffffffffffffffffffffffffffffffffff1681526020016000151581526020016000151581525060056000838152602001908152602001600020600082015181600001556020820151816001015560408201518160020155606082015181600301556080820151816004015560a08201518160050160006101000a81548173ffffffffffffffffffffffffffffffffffffffff021916908373ffffffffffffffffffffffffffffffffffffffff16021790555060c08201518160060160006101000a81548173ffffffffffffffffffffffffffffffffffffffff021916908373ffffffffffffffffffffffffffffffffffffffff16021790555060e08201518160060160146101000a81548160ff0219169083151502179055506101008201518160060160156101000a81548160ff021916908315150217905550905050600260009054906101000a900473ffffffffffffffffffffffffffffffffffffffff1673ffffffffffffffffffffffffffffffffffffffff1663f242432a333088886040518563ffffffff1660e01b81526004016104d99493929190610ed9565b600060405180830381600087803b1580156104f357600080fd5b505af1158015610507573d6000803e3d6000fd5b50505050600073ffffffffffffffffffffffffffffffffffffffff166006600087815260200190815260200160002060009054906101000a900473ffffffffffffffffffffffffffffffffffffffff1673ffffffffffffffffffffffffffffffffffffffff1614156105c657336006600087815260200190815260200160002060006101000a81548173ffffffffffffffffffffffffffffffffffffffff021916908373ffffffffffffffffffffffffffffffffffffffff1602179055505b5050505050565b60066020528060005260406000206000915054906101000a900473ffffffffffffffffffffffffffffffffffffffff1681565b60006005600084815260200190815260200160002060030154905034828261062891906110dc565b14610668576040517f08c379a000000000000000000000000000000000000000000000000000000000815260040161065f90610fa7565b60405180910390fd5b3373ffffffffffffffffffffffffffffffffffffffff166005600085815260200190815260200160002060060160009054906101000a900473ffffffffffffffffffffffffffffffffffffffff1673ffffffffffffffffffffffffffffffffffffffff16141561070d576040517f08c379a000000000000000000000000000000000000000000000000000000000815260040161070490610fe7565b60405180910390fd5b6000606460056000868152602001908152602001600020600401548361073391906110dc565b61073d91906110ab565b90506005600085815260200190815260200160002060060160009054906101000a900473ffffffffffffffffffffffffffffffffffffffff1673ffffffffffffffffffffffffffffffffffffffff166108fc823461079b9190611136565b9081150290604051600060405180830381858888f193505050501580156107c6573d6000803e3d6000fd5b50336005600086815260200190815260200160002060060160006101000a81548173ffffffffffffffffffffffffffffffffffffffff021916908373ffffffffffffffffffffffffffffffffffffffff1602179055506108266001610971565b61084230338686604051806020016040528060008152506108f2565b50600260009054906101000a900473ffffffffffffffffffffffffffffffffffffffff1673ffffffffffffffffffffffffffffffffffffffff1663f242432a30338760016040518563ffffffff1660e01b81526004016108a59493929190610e81565b600060405180830381600087803b1580156108bf57600080fd5b505af11580156108d3573d6000803e3d6000fd5b5050505050505050565b600063bc197c8160e01b905095945050505050565b600063f23a6e6160e01b905095945050505050565b60007f01ffc9a7000000000000000000000000000000000000000000000000000000007bffffffffffffffffffffffffffffffffffffffffffffffffffffffff1916827bffffffffffffffffffffffffffffffffffffffffffffffffffffffff1916149050919050565b6001816000016000828254019250508190555050565b600081600001549050919050565b60006109a86109a38461102c565b611007565b905080838252602082019050828560208602820111156109cb576109ca6112c2565b5b60005b858110156109fb57816109e18882610acd565b8452602084019350602083019250506001810190506109ce565b5050509392505050565b6000610a18610a1384611058565b611007565b905082815260208101848484011115610a3457610a336112c7565b5b610a3f8482856111f0565b509392505050565b600081359050610a56816113dd565b92915050565b600082601f830112610a7157610a706112bd565b5b8135610a81848260208601610995565b91505092915050565b600081359050610a99816113f4565b92915050565b600082601f830112610ab457610ab36112bd565b5b8135610ac4848260208601610a05565b91505092915050565b600081359050610adc8161140b565b92915050565b600080600080600060a08688031215610afe57610afd6112d1565b5b6000610b0c88828901610a47565b9550506020610b1d88828901610a47565b945050604086013567ffffffffffffffff811115610b3e57610b3d6112cc565b5b610b4a88828901610a5c565b935050606086013567ffffffffffffffff811115610b6b57610b6a6112cc565b5b610b7788828901610a5c565b925050608086013567ffffffffffffffff811115610b9857610b976112cc565b5b610ba488828901610a9f565b9150509295509295909350565b600080600080600060a08688031215610bcd57610bcc6112d1565b5b6000610bdb88828901610a47565b9550506020610bec88828901610a47565b9450506040610bfd88828901610acd565b9350506060610c0e88828901610acd565b925050608086013567ffffffffffffffff811115610c2f57610c2e6112cc565b5b610c3b88828901610a9f565b9150509295509295909350565b600060208284031215610c5e57610c5d6112d1565b5b6000610c6c84828501610a8a565b91505092915050565b600060208284031215610c8b57610c8a6112d1565b5b6000610c9984828501610acd565b91505092915050565b60008060408385031215610cb957610cb86112d1565b5b6000610cc785828601610acd565b9250506020610cd885828601610acd565b9150509250929050565b60008060008060808587031215610cfc57610cfb6112d1565b5b6000610d0a87828801610acd565b9450506020610d1b87828801610acd565b9350506040610d2c87828801610acd565b9250506060610d3d87828801610acd565b91505092959194509250565b610d528161116a565b82525050565b610d618161117c565b82525050565b610d7081611188565b82525050565b610d7f816111de565b82525050565b6000610d9260218361109a565b9150610d9d826112e7565b604082019050919050565b6000610db560138361109a565b9150610dc082611336565b602082019050919050565b6000610dd860138361109a565b9150610de38261135f565b602082019050919050565b6000610dfb601e8361109a565b9150610e0682611388565b602082019050919050565b6000610e1e60158361109a565b9150610e29826113b1565b602082019050919050565b6000610e41600083611089565b9150610e4c826113da565b600082019050919050565b610e60816111d4565b82525050565b6000602082019050610e7b6000830184610d49565b92915050565b600060a082019050610e966000830187610d49565b610ea36020830186610d49565b610eb06040830185610e57565b610ebd6060830184610d76565b8181036080830152610ece81610e34565b905095945050505050565b600060a082019050610eee6000830187610d49565b610efb6020830186610d49565b610f086040830185610e57565b610f156060830184610e57565b8181036080830152610f2681610e34565b905095945050505050565b6000602082019050610f466000830184610d58565b92915050565b6000602082019050610f616000830184610d67565b92915050565b60006020820190508181036000830152610f8081610d85565b9050919050565b60006020820190508181036000830152610fa081610da8565b9050919050565b60006020820190508181036000830152610fc081610dcb565b9050919050565b60006020820190508181036000830152610fe081610dee565b9050919050565b6000602082019050818103600083015261100081610e11565b9050919050565b6000611011611022565b905061101d82826111ff565b919050565b6000604051905090565b600067ffffffffffffffff8211156110475761104661128e565b5b602082029050602081019050919050565b600067ffffffffffffffff8211156110735761107261128e565b5b61107c826112d6565b9050602081019050919050565b600082825260208201905092915050565b600082825260208201905092915050565b60006110b6826111d4565b91506110c1836111d4565b9250826110d1576110d061125f565b5b828204905092915050565b60006110e7826111d4565b91506110f2836111d4565b9250817fffffffffffffffffffffffffffffffffffffffffffffffffffffffffffffffff048311821515161561112b5761112a611230565b5b828202905092915050565b6000611141826111d4565b915061114c836111d4565b92508282101561115f5761115e611230565b5b828203905092915050565b6000611175826111b4565b9050919050565b60008115159050919050565b60007fffffffff0000000000000000000000000000000000000000000000000000000082169050919050565b600073ffffffffffffffffffffffffffffffffffffffff82169050919050565b6000819050919050565b60006111e9826111d4565b9050919050565b82818337600083830152505050565b611208826112d6565b810181811067ffffffffffffffff821117156112275761122661128e565b5b80604052505050565b7f4e487b7100000000000000000000000000000000000000000000000000000000600052601160045260246000fd5b7f4e487b7100000000000000000000000000000000000000000000000000000000600052601260045260246000fd5b7f4e487b7100000000000000000000000000000000000000000000000000000000600052604160045260246000fd5b600080fd5b600080fd5b600080fd5b600080fd5b600080fd5b6000601f19601f8301169050919050565b7f726f79616c74792073686f756c64206265206265747765656e203020746f203360008201527f3000000000000000000000000000000000000000000000000000000000000000602082015250565b7f546f6b656e20646f65736e6f7420657869737400000000000000000000000000600082015250565b7f496e76616c696420416d6f756e74205061696400000000000000000000000000600082015250565b7f726f79616c74792073686f756c64206265206c657373207468616e2033300000600082015250565b7f4475646520596f7527726520746865206f776e65720000000000000000000000600082015250565b50565b6113e68161116a565b81146113f157600080fd5b50565b6113fd81611188565b811461140857600080fd5b50565b611414816111d4565b811461141f57600080fd5b5056fea26469706673582212201f92a35b5a9b82b7dec3acaf1b661c9f2eaaa71068fbe34980298811980b9a7e64736f6c63430008070033",
    "immutableReferences": {},
    "source": "// SPDX-License-Identifier: MIT\n\npragma solidity ^0.8.4;\n\nimport \"@openzeppelin/contracts/token/ERC1155/ERC1155.sol\";\nimport \"@openzeppelin/contracts/utils/Counters.sol\";\nimport \"@openzeppelin/contracts/token/ERC1155/IERC1155.sol\";\nimport \"@openzeppelin/contracts/token/ERC1155/utils/ERC1155Holder.sol\";\n\n/// @title A NFT Marketplace using ERC1155\n/// @author Karan J Goraniya\n/// @notice You can use this contract to list NFT on Marketplace\n/// @dev All function calls are currently implemented without side effects\n\ncontract Marketplace is ERC1155Holder {\n    using Counters for Counters.Counter;\n    Counters.Counter private _tokenIds;\n    Counters.Counter private _nftSold;\n    IERC1155 private nftContract;\n    address private owner;\n    uint256 private platformFee = 25;\n\n    constructor(address _nftContract) {\n        nftContract = IERC1155(_nftContract);\n    }\n\n    struct NFTMarketItem {\n        uint256 tokenId;\n        uint256 nftId;\n        uint256 amount;\n        uint256 price;\n        uint256 commision;\n        address payable seller;\n        address payable owner;\n        bool isStopped;\n        bool sold;\n    }\n\n    mapping(uint256 => NFTMarketItem) private marketItem;\n    mapping(uint256 => address) public nftOrigin;\n\n    /// @notice It will list the NFT to marketplace.\n    /// @dev It will list NFT minted from MFTMint contract.\n\n    function listNft(\n        uint256 nftId,\n        uint256 amount,\n        uint256 price,\n        uint256 royalty\n    ) external {\n        require(nftId > 0, \"Token doesnot exist\");\n        require(royalty >= 0, \"royalty should be between 0 to 30\");\n        require(royalty < 29, \"royalty should be less than 30\");\n\n        _tokenIds.increment();\n        uint256 tokenId = _tokenIds.current();\n\n        marketItem[tokenId] = NFTMarketItem(\n            tokenId,\n            nftId,\n            amount,\n            price,\n            royalty,\n            payable(msg.sender),\n            payable(msg.sender),\n            false,\n            false\n        );\n\n        IERC1155(nftContract).safeTransferFrom(\n            msg.sender,\n            address(this),\n            nftId,\n            amount,\n            \"\"\n        );\n        if (nftOrigin[nftId] == address(0)) {\n            nftOrigin[nftId] = msg.sender;\n        }\n    }\n\n    /// @notice It will buy the NFT from marketplace.\n    /// @dev User will able to buy NFT and transfer to respectively owner or user and platform fees, roylty fees also deducted          from this function.\n    // function getOrignalOwner (uint256 tokenId) external view returns(address){\n    //         address ownerO = nftContract.getNftOwner(tokenId);\n    //     return ownerO;\n    // }\n    function buyNFT(uint256 tokenId, uint256 amount) external payable {\n        uint256 price = marketItem[tokenId].price;\n        require(price * amount == msg.value, \"Invalid Amount Paid\");\n        require(\n            marketItem[tokenId].owner != msg.sender,\n            \"Dude You're the owner\"\n        );\n        uint256 commision = (price * marketItem[tokenId].commision) / 100;\n\n        marketItem[tokenId].owner.transfer(msg.value - commision);\n        marketItem[tokenId].owner = payable(msg.sender);\n        _nftSold.increment();\n\n        onERC1155Received(address(this), msg.sender, tokenId, amount, \"\");\n        nftContract.safeTransferFrom(address(this), msg.sender, tokenId, 1, \"\");\n    }\n}\n",
    "sourcePath": "/home/dev-lap-2/Desktop/WORK/Contracts/Ayewa/contracts/DaSales.sol",
    "compiler": {
        "name": "solc",
        "version": "0.8.7+commit.e28d00a7.Emscripten.clang"
    },
    "schemaVersion": "3.4.7",
    "updatedAt": "2022-07-14T12:40:03.332Z",
    "networkType": "ethereum",
    "devdoc": {
        "author": "Karan J Goraniya",
        "details": "All function calls are currently implemented without side effects",
        "kind": "dev",
        "methods": {
            "buyNFT(uint256,uint256)": {
                "details": "User will able to buy NFT and transfer to respectively owner or user and platform fees, roylty fees also deducted          from this function."
            },
            "listNft(uint256,uint256,uint256,uint256)": {
                "details": "It will list NFT minted from MFTMint contract."
            },
            "supportsInterface(bytes4)": {
                "details": "See {IERC165-supportsInterface}."
            }
        },
        "title": "A NFT Marketplace using ERC1155",
        "version": 1
    },
    "userdoc": {
        "kind": "user",
        "methods": {
            "buyNFT(uint256,uint256)": {
                "notice": "It will buy the NFT from marketplace."
            },
            "listNft(uint256,uint256,uint256,uint256)": {
                "notice": "It will list the NFT to marketplace."
            }
        },
        "notice": "You can use this contract to list NFT on Marketplace",
        "version": 1
    }
}